{
  "abi": [
    {
      "type": "constructor",
      "inputs": [
        {
          "name": "initialOwner",
          "type": "address",
          "internalType": "address"
        }
      ],
      "stateMutability": "nonpayable"
    },
    {
      "type": "function",
      "name": "authorize",
      "inputs": [
        {
          "name": "account",
          "type": "address",
          "internalType": "address"
        }
      ],
      "outputs": [],
      "stateMutability": "nonpayable"
    },
    {
      "type": "function",
      "name": "isAuthorized",
      "inputs": [
        {
          "name": "account",
          "type": "address",
          "internalType": "address"
        }
      ],
      "outputs": [
        {
          "name": "",
          "type": "bool",
          "internalType": "bool"
        }
      ],
      "stateMutability": "view"
    },
    {
      "type": "function",
      "name": "owner",
      "inputs": [],
      "outputs": [
        {
          "name": "",
          "type": "address",
          "internalType": "address"
        }
      ],
      "stateMutability": "view"
    },
    {
      "type": "function",
      "name": "renounceOwnership",
      "inputs": [],
      "outputs": [],
      "stateMutability": "nonpayable"
    },
    {
      "type": "function",
      "name": "transferOwnership",
      "inputs": [
        {
          "name": "newOwner",
          "type": "address",
          "internalType": "address"
        }
      ],
      "outputs": [],
      "stateMutability": "nonpayable"
    },
    {
      "type": "function",
      "name": "unauthorize",
      "inputs": [
        {
          "name": "account",
          "type": "address",
          "internalType": "address"
        }
      ],
      "outputs": [],
      "stateMutability": "nonpayable"
    },
    {
      "type": "event",
      "name": "OwnershipTransferred",
      "inputs": [
        {
          "name": "previousOwner",
          "type": "address",
          "indexed": true,
          "internalType": "address"
        },
        {
          "name": "newOwner",
          "type": "address",
          "indexed": true,
          "internalType": "address"
        }
      ],
      "anonymous": false
    },
    {
      "type": "error",
      "name": "OwnableInvalidOwner",
      "inputs": [
        {
          "name": "owner",
          "type": "address",
          "internalType": "address"
        }
      ]
    },
    {
      "type": "error",
      "name": "OwnableUnauthorizedAccount",
      "inputs": [
        {
          "name": "account",
          "type": "address",
          "internalType": "address"
        }
      ]
    }
  ],
  "bytecode": {
    "object": "0x608060405234801561001057600080fd5b5060405161038838038061038883398101604081905261002f916100be565b806001600160a01b03811661005e57604051631e4fbdf760e01b81526000600482015260240160405180910390fd5b6100678161006e565b50506100ee565b600080546001600160a01b038381166001600160a01b0319831681178455604051919092169283917f8be0079c531659141344cd1fd0a4f28419497f9722a3daafe3b4186f6b6457e09190a35050565b6000602082840312156100d057600080fd5b81516001600160a01b03811681146100e757600080fd5b9392505050565b61028b806100fd6000396000f3fe608060405234801561001057600080fd5b50600436106100625760003560e01c8063715018a6146100675780638da5cb5b14610071578063b6a5d7de14610091578063f0b37c04146100a4578063f2fde38b146100b7578063fe9fbb80146100ca575b600080fd5b61006f61010a565b005b6000546040516001600160a01b0390911681526020015b60405180910390f35b61006f61009f366004610225565b61011e565b61006f6100b2366004610225565b610156565b61006f6100c5366004610225565b610165565b6100fa6100d8366004610225565b6001600160a01b031660009081526001602081905260409091205460ff161490565b6040519015158152602001610088565b6101126101a8565b61011c60006101d5565b565b6101266101a8565b60015b6001600160a01b03919091166000908152600160205260409020805460ff191660ff909216919091179055565b61015e6101a8565b6000610129565b61016d6101a8565b6001600160a01b03811661019c57604051631e4fbdf760e01b8152600060048201526024015b60405180910390fd5b6101a5816101d5565b50565b6000546001600160a01b0316331461011c5760405163118cdaa760e01b8152336004820152602401610193565b600080546001600160a01b038381166001600160a01b0319831681178455604051919092169283917f8be0079c531659141344cd1fd0a4f28419497f9722a3daafe3b4186f6b6457e09190a35050565b60006020828403121561023757600080fd5b81356001600160a01b038116811461024e57600080fd5b939250505056fea2646970667358221220807662022ca264412994fa99402d5722d84df39b6144508b95e6b7acb214013864736f6c63430008190033",
    "linkReferences": {}
  },
  "methodIdentifiers": {
    "authorize(address)": "b6a5d7de",
    "isAuthorized(address)": "fe9fbb80",
    "owner()": "8da5cb5b",
    "renounceOwnership()": "715018a6",
    "transferOwnership(address)": "f2fde38b",
    "unauthorize(address)": "f0b37c04"
  },
  "id": 50
}