{
  "abi": [
    {
      "type": "function",
      "name": "addEvent",
      "inputs": [
        {
          "name": "eventName",
          "type": "string",
          "internalType": "string"
        },
        {
          "name": "dataNames",
          "type": "string[]",
          "internalType": "string[]"
        },
        {
          "name": "dataValues",
          "type": "string[]",
          "internalType": "string[]"
        }
      ],
      "outputs": [],
      "stateMutability": "nonpayable"
    },
    {
      "type": "function",
      "name": "addEventCo2",
      "inputs": [
        {
          "name": "eventName",
          "type": "string",
          "internalType": "string"
        },
        {
          "name": "dataNames",
          "type": "string[]",
          "internalType": "string[]"
        },
        {
          "name": "dataValues",
          "type": "string[]",
          "internalType": "string[]"
        }
      ],
      "outputs": [],
      "stateMutability": "nonpayable"
    },
    {
      "type": "function",
      "name": "addEventRawMaterialsPercent",
      "inputs": [
        {
          "name": "eventName",
          "type": "string",
          "internalType": "string"
        },
        {
          "name": "dataNames",
          "type": "string[]",
          "internalType": "string[]"
        },
        {
          "name": "dataValues",
          "type": "string[]",
          "internalType": "string[]"
        }
      ],
      "outputs": [],
      "stateMutability": "nonpayable"
    },
    {
      "type": "function",
      "name": "addEventStatesLifeCycle",
      "inputs": [
        {
          "name": "eventName",
          "type": "string",
          "internalType": "string"
        },
        {
          "name": "dataNames",
          "type": "string[]",
          "internalType": "string[]"
        },
        {
          "name": "dataValues",
          "type": "string[]",
          "internalType": "string[]"
        }
      ],
      "outputs": [],
      "stateMutability": "nonpayable"
    },
    {
      "type": "function",
      "name": "addEventTracability",
      "inputs": [
        {
          "name": "eventName",
          "type": "string",
          "internalType": "string"
        },
        {
          "name": "dataNames",
          "type": "string[]",
          "internalType": "string[]"
        },
        {
          "name": "dataValues",
          "type": "string[]",
          "internalType": "string[]"
        }
      ],
      "outputs": [],
      "stateMutability": "nonpayable"
    },
    {
      "type": "function",
      "name": "approve",
      "inputs": [
        {
          "name": "to",
          "type": "address",
          "internalType": "address"
        },
        {
          "name": "tokenId",
          "type": "uint256",
          "internalType": "uint256"
        }
      ],
      "outputs": [],
      "stateMutability": "nonpayable"
    },
    {
      "type": "function",
      "name": "balanceOf",
      "inputs": [
        {
          "name": "owner",
          "type": "address",
          "internalType": "address"
        }
      ],
      "outputs": [
        {
          "name": "",
          "type": "uint256",
          "internalType": "uint256"
        }
      ],
      "stateMutability": "view"
    },
    {
      "type": "function",
      "name": "getApproved",
      "inputs": [
        {
          "name": "tokenId",
          "type": "uint256",
          "internalType": "uint256"
        }
      ],
      "outputs": [
        {
          "name": "",
          "type": "address",
          "internalType": "address"
        }
      ],
      "stateMutability": "view"
    },
    {
      "type": "function",
      "name": "getEvent",
      "inputs": [
        {
          "name": "index",
          "type": "uint256",
          "internalType": "uint256"
        }
      ],
      "outputs": [
        {
          "name": "",
          "type": "tuple",
          "internalType": "struct IMetadata.Event",
          "components": [
            {
              "name": "eventName",
              "type": "string",
              "internalType": "string"
            },
            {
              "name": "timestamp",
              "type": "uint256",
              "internalType": "uint256"
            },
            {
              "name": "dataNames",
              "type": "string[]",
              "internalType": "string[]"
            },
            {
              "name": "dataValues",
              "type": "string[]",
              "internalType": "string[]"
            }
          ]
        }
      ],
      "stateMutability": "view"
    },
    {
      "type": "function",
      "name": "getEventCo2",
      "inputs": [
        {
          "name": "index",
          "type": "uint256",
          "internalType": "uint256"
        }
      ],
      "outputs": [
        {
          "name": "",
          "type": "tuple",
          "internalType": "struct IMetadata.Event",
          "components": [
            {
              "name": "eventName",
              "type": "string",
              "internalType": "string"
            },
            {
              "name": "timestamp",
              "type": "uint256",
              "internalType": "uint256"
            },
            {
              "name": "dataNames",
              "type": "string[]",
              "internalType": "string[]"
            },
            {
              "name": "dataValues",
              "type": "string[]",
              "internalType": "string[]"
            }
          ]
        }
      ],
      "stateMutability": "view"
    },
    {
      "type": "function",
      "name": "getEventRawMaterialsPercent",
      "inputs": [
        {
          "name": "index",
          "type": "uint256",
          "internalType": "uint256"
        }
      ],
      "outputs": [
        {
          "name": "",
          "type": "tuple",
          "internalType": "struct IMetadata.Event",
          "components": [
            {
              "name": "eventName",
              "type": "string",
              "internalType": "string"
            },
            {
              "name": "timestamp",
              "type": "uint256",
              "internalType": "uint256"
            },
            {
              "name": "dataNames",
              "type": "string[]",
              "internalType": "string[]"
            },
            {
              "name": "dataValues",
              "type": "string[]",
              "internalType": "string[]"
            }
          ]
        }
      ],
      "stateMutability": "view"
    },
    {
      "type": "function",
      "name": "getEventStatesLifeCycle",
      "inputs": [
        {
          "name": "index",
          "type": "uint256",
          "internalType": "uint256"
        }
      ],
      "outputs": [
        {
          "name": "",
          "type": "tuple",
          "internalType": "struct IMetadata.Event",
          "components": [
            {
              "name": "eventName",
              "type": "string",
              "internalType": "string"
            },
            {
              "name": "timestamp",
              "type": "uint256",
              "internalType": "uint256"
            },
            {
              "name": "dataNames",
              "type": "string[]",
              "internalType": "string[]"
            },
            {
              "name": "dataValues",
              "type": "string[]",
              "internalType": "string[]"
            }
          ]
        }
      ],
      "stateMutability": "view"
    },
    {
      "type": "function",
      "name": "getEventTracability",
      "inputs": [
        {
          "name": "index",
          "type": "uint256",
          "internalType": "uint256"
        }
      ],
      "outputs": [
        {
          "name": "",
          "type": "tuple",
          "internalType": "struct IMetadata.Event",
          "components": [
            {
              "name": "eventName",
              "type": "string",
              "internalType": "string"
            },
            {
              "name": "timestamp",
              "type": "uint256",
              "internalType": "uint256"
            },
            {
              "name": "dataNames",
              "type": "string[]",
              "internalType": "string[]"
            },
            {
              "name": "dataValues",
              "type": "string[]",
              "internalType": "string[]"
            }
          ]
        }
      ],
      "stateMutability": "view"
    },
    {
      "type": "function",
      "name": "getEventsCount",
      "inputs": [],
      "outputs": [
        {
          "name": "",
          "type": "uint256",
          "internalType": "uint256"
        }
      ],
      "stateMutability": "view"
    },
    {
      "type": "function",
      "name": "getEventsCountCo2",
      "inputs": [],
      "outputs": [
        {
          "name": "",
          "type": "uint256",
          "internalType": "uint256"
        }
      ],
      "stateMutability": "view"
    },
    {
      "type": "function",
      "name": "getEventsCountRawMaterialsPercent",
      "inputs": [],
      "outputs": [
        {
          "name": "",
          "type": "uint256",
          "internalType": "uint256"
        }
      ],
      "stateMutability": "view"
    },
    {
      "type": "function",
      "name": "getEventsCountStatesLifeCycle",
      "inputs": [],
      "outputs": [
        {
          "name": "",
          "type": "uint256",
          "internalType": "uint256"
        }
      ],
      "stateMutability": "view"
    },
    {
      "type": "function",
      "name": "getEventsCountTracability",
      "inputs": [],
      "outputs": [
        {
          "name": "",
          "type": "uint256",
          "internalType": "uint256"
        }
      ],
      "stateMutability": "view"
    },
    {
      "type": "function",
      "name": "initialize",
      "inputs": [
        {
          "name": "contractOwner",
          "type": "address",
          "internalType": "address"
        },
        {
          "name": "authorizationContract",
          "type": "address",
          "internalType": "address"
        },
        {
          "name": "name",
          "type": "string",
          "internalType": "string"
        },
        {
          "name": "symbol",
          "type": "string",
          "internalType": "string"
        }
      ],
      "outputs": [],
      "stateMutability": "nonpayable"
    },
    {
      "type": "function",
      "name": "isApprovedForAll",
      "inputs": [
        {
          "name": "owner",
          "type": "address",
          "internalType": "address"
        },
        {
          "name": "operator",
          "type": "address",
          "internalType": "address"
        }
      ],
      "outputs": [
        {
          "name": "",
          "type": "bool",
          "internalType": "bool"
        }
      ],
      "stateMutability": "view"
    },
    {
      "type": "function",
      "name": "metadata",
      "inputs": [],
      "outputs": [
        {
          "name": "",
          "type": "tuple",
          "internalType": "struct Metadata",
          "components": [
            {
              "name": "status",
              "type": "uint8",
              "internalType": "uint8"
            },
            {
              "name": "batteryId",
              "type": "string",
              "internalType": "string"
            },
            {
              "name": "manufacturer",
              "type": "string",
              "internalType": "string"
            },
            {
              "name": "batteryStatus",
              "type": "string",
              "internalType": "string"
            },
            {
              "name": "productionDate",
              "type": "uint256",
              "internalType": "uint256"
            }
          ]
        }
      ],
      "stateMutability": "view"
    },
    {
      "type": "function",
      "name": "mint",
      "inputs": [
        {
          "name": "to",
          "type": "address",
          "internalType": "address"
        },
        {
          "name": "batteryId",
          "type": "string",
          "internalType": "string"
        },
        {
          "name": "manufacturer",
          "type": "string",
          "internalType": "string"
        },
        {
          "name": "batteryStatus",
          "type": "string",
          "internalType": "string"
        },
        {
          "name": "productionDate",
          "type": "uint256",
          "internalType": "uint256"
        }
      ],
      "outputs": [],
      "stateMutability": "nonpayable"
    },
    {
      "type": "function",
      "name": "name",
      "inputs": [],
      "outputs": [
        {
          "name": "",
          "type": "string",
          "internalType": "string"
        }
      ],
      "stateMutability": "view"
    },
    {
      "type": "function",
      "name": "owner",
      "inputs": [],
      "outputs": [
        {
          "name": "",
          "type": "address",
          "internalType": "address"
        }
      ],
      "stateMutability": "view"
    },
    {
      "type": "function",
      "name": "ownerOf",
      "inputs": [
        {
          "name": "tokenId",
          "type": "uint256",
          "internalType": "uint256"
        }
      ],
      "outputs": [
        {
          "name": "",
          "type": "address",
          "internalType": "address"
        }
      ],
      "stateMutability": "view"
    },
    {
      "type": "function",
      "name": "renounceOwnership",
      "inputs": [],
      "outputs": [],
      "stateMutability": "nonpayable"
    },
    {
      "type": "function",
      "name": "safeTransferFrom",
      "inputs": [
        {
          "name": "from",
          "type": "address",
          "internalType": "address"
        },
        {
          "name": "to",
          "type": "address",
          "internalType": "address"
        },
        {
          "name": "tokenId",
          "type": "uint256",
          "internalType": "uint256"
        }
      ],
      "outputs": [],
      "stateMutability": "nonpayable"
    },
    {
      "type": "function",
      "name": "safeTransferFrom",
      "inputs": [
        {
          "name": "from",
          "type": "address",
          "internalType": "address"
        },
        {
          "name": "to",
          "type": "address",
          "internalType": "address"
        },
        {
          "name": "tokenId",
          "type": "uint256",
          "internalType": "uint256"
        },
        {
          "name": "data",
          "type": "bytes",
          "internalType": "bytes"
        }
      ],
      "outputs": [],
      "stateMutability": "nonpayable"
    },
    {
      "type": "function",
      "name": "setApprovalForAll",
      "inputs": [
        {
          "name": "operator",
          "type": "address",
          "internalType": "address"
        },
        {
          "name": "approved",
          "type": "bool",
          "internalType": "bool"
        }
      ],
      "outputs": [],
      "stateMutability": "nonpayable"
    },
    {
      "type": "function",
      "name": "supportsInterface",
      "inputs": [
        {
          "name": "interfaceId",
          "type": "bytes4",
          "internalType": "bytes4"
        }
      ],
      "outputs": [
        {
          "name": "",
          "type": "bool",
          "internalType": "bool"
        }
      ],
      "stateMutability": "view"
    },
    {
      "type": "function",
      "name": "symbol",
      "inputs": [],
      "outputs": [
        {
          "name": "",
          "type": "string",
          "internalType": "string"
        }
      ],
      "stateMutability": "view"
    },
    {
      "type": "function",
      "name": "tokenURI",
      "inputs": [
        {
          "name": "tokenId",
          "type": "uint256",
          "internalType": "uint256"
        }
      ],
      "outputs": [
        {
          "name": "",
          "type": "string",
          "internalType": "string"
        }
      ],
      "stateMutability": "view"
    },
    {
      "type": "function",
      "name": "transferFrom",
      "inputs": [
        {
          "name": "from",
          "type": "address",
          "internalType": "address"
        },
        {
          "name": "to",
          "type": "address",
          "internalType": "address"
        },
        {
          "name": "tokenId",
          "type": "uint256",
          "internalType": "uint256"
        }
      ],
      "outputs": [],
      "stateMutability": "nonpayable"
    },
    {
      "type": "function",
      "name": "transferOwnership",
      "inputs": [
        {
          "name": "newOwner",
          "type": "address",
          "internalType": "address"
        }
      ],
      "outputs": [],
      "stateMutability": "nonpayable"
    },
    {
      "type": "function",
      "name": "transferToVehicle",
      "inputs": [
        {
          "name": "from",
          "type": "address",
          "internalType": "address"
        },
        {
          "name": "vehicleContract",
          "type": "address",
          "internalType": "address"
        }
      ],
      "outputs": [],
      "stateMutability": "nonpayable"
    },
    {
      "type": "event",
      "name": "Approval",
      "inputs": [
        {
          "name": "owner",
          "type": "address",
          "indexed": true,
          "internalType": "address"
        },
        {
          "name": "approved",
          "type": "address",
          "indexed": true,
          "internalType": "address"
        },
        {
          "name": "tokenId",
          "type": "uint256",
          "indexed": true,
          "internalType": "uint256"
        }
      ],
      "anonymous": false
    },
    {
      "type": "event",
      "name": "ApprovalForAll",
      "inputs": [
        {
          "name": "owner",
          "type": "address",
          "indexed": true,
          "internalType": "address"
        },
        {
          "name": "operator",
          "type": "address",
          "indexed": true,
          "internalType": "address"
        },
        {
          "name": "approved",
          "type": "bool",
          "indexed": false,
          "internalType": "bool"
        }
      ],
      "anonymous": false
    },
    {
      "type": "event",
      "name": "Initialized",
      "inputs": [
        {
          "name": "version",
          "type": "uint64",
          "indexed": false,
          "internalType": "uint64"
        }
      ],
      "anonymous": false
    },
    {
      "type": "event",
      "name": "OwnershipTransferred",
      "inputs": [
        {
          "name": "previousOwner",
          "type": "address",
          "indexed": true,
          "internalType": "address"
        },
        {
          "name": "newOwner",
          "type": "address",
          "indexed": true,
          "internalType": "address"
        }
      ],
      "anonymous": false
    },
    {
      "type": "event",
      "name": "Transfer",
      "inputs": [
        {
          "name": "from",
          "type": "address",
          "indexed": true,
          "internalType": "address"
        },
        {
          "name": "to",
          "type": "address",
          "indexed": true,
          "internalType": "address"
        },
        {
          "name": "tokenId",
          "type": "uint256",
          "indexed": true,
          "internalType": "uint256"
        }
      ],
      "anonymous": false
    },
    {
      "type": "error",
      "name": "ERC721IncorrectOwner",
      "inputs": [
        {
          "name": "sender",
          "type": "address",
          "internalType": "address"
        },
        {
          "name": "tokenId",
          "type": "uint256",
          "internalType": "uint256"
        },
        {
          "name": "owner",
          "type": "address",
          "internalType": "address"
        }
      ]
    },
    {
      "type": "error",
      "name": "ERC721InsufficientApproval",
      "inputs": [
        {
          "name": "operator",
          "type": "address",
          "internalType": "address"
        },
        {
          "name": "tokenId",
          "type": "uint256",
          "internalType": "uint256"
        }
      ]
    },
    {
      "type": "error",
      "name": "ERC721InvalidApprover",
      "inputs": [
        {
          "name": "approver",
          "type": "address",
          "internalType": "address"
        }
      ]
    },
    {
      "type": "error",
      "name": "ERC721InvalidOperator",
      "inputs": [
        {
          "name": "operator",
          "type": "address",
          "internalType": "address"
        }
      ]
    },
    {
      "type": "error",
      "name": "ERC721InvalidOwner",
      "inputs": [
        {
          "name": "owner",
          "type": "address",
          "internalType": "address"
        }
      ]
    },
    {
      "type": "error",
      "name": "ERC721InvalidReceiver",
      "inputs": [
        {
          "name": "receiver",
          "type": "address",
          "internalType": "address"
        }
      ]
    },
    {
      "type": "error",
      "name": "ERC721InvalidSender",
      "inputs": [
        {
          "name": "sender",
          "type": "address",
          "internalType": "address"
        }
      ]
    },
    {
      "type": "error",
      "name": "ERC721NonexistentToken",
      "inputs": [
        {
          "name": "tokenId",
          "type": "uint256",
          "internalType": "uint256"
        }
      ]
    },
    {
      "type": "error",
      "name": "InvalidAuthorization",
      "inputs": []
    },
    {
      "type": "error",
      "name": "InvalidCallerNotOwner",
      "inputs": []
    },
    {
      "type": "error",
      "name": "InvalidIndex",
      "inputs": []
    },
    {
      "type": "error",
      "name": "InvalidInitialization",
      "inputs": []
    },
    {
      "type": "error",
      "name": "NotInitializing",
      "inputs": []
    },
    {
      "type": "error",
      "name": "OwnableInvalidOwner",
      "inputs": [
        {
          "name": "owner",
          "type": "address",
          "internalType": "address"
        }
      ]
    },
    {
      "type": "error",
      "name": "OwnableUnauthorizedAccount",
      "inputs": [
        {
          "name": "account",
          "type": "address",
          "internalType": "address"
        }
      ]
    }
  ],
  "bytecode": {
    "object": "0x6080604052348015600f57600080fd5b506132e98061001f6000396000f3fe608060405234801561001057600080fd5b50600436106102115760003560e01c806342842e0e116101255780639ee74dd1116100ad578063c87b56dd1161007c578063c87b56dd14610475578063dd7388fe14610488578063e46af52514610490578063e985e9c5146104a3578063f2fde38b146104b657600080fd5b80639ee74dd114610429578063a22cb4651461043c578063adc2f01b1461044f578063b88d4fde1461046257600080fd5b806370a08231116100f457806370a08231146103ce578063715018a6146103e15780638da5cb5b146103e95780639432ffe01461041957806395d89b411461042157600080fd5b806342842e0e1461038d5780634b3e8836146103a05780636352211e146103a85780636d1884e0146103bb57600080fd5b806323930af7116101a85780632d621d57116101775780632d621d571461033757806330366d5f1461034a578063392f37e9146103525780633d648b2b146103675780633d85b91b1461037a57600080fd5b806323930af7146102eb57806323b872dd146102fe57806325c0fcf3146103115780632893abbf1461032457600080fd5b8063095ea7b3116101e4578063095ea7b31461029e5780630a8b9cae146102b35780631a393e68146102c55780632016a0d2146102d857600080fd5b806301ffc9a71461021657806304971ef51461023e57806306fdde031461025e578063081812fc14610273575b600080fd5b610229610224366004612a40565b6104c9565b60405190151581526020015b60405180910390f35b61025161024c366004612a5d565b61051b565b6040516102359190612b20565b6102666107d4565b6040516102359190612b8b565b610286610281366004612a5d565b610878565b6040516001600160a01b039091168152602001610235565b6102b16102ac366004612bba565b61088d565b005b6009545b604051908152602001610235565b6102b16102d3366004612d42565b61089c565b6102b16102e6366004612dca565b6109bd565b6102b16102f9366004612d42565b610aca565b6102b161030c366004612e4f565b610beb565b6102b161031f366004612d42565b610c7b565b610251610332366004612a5d565b610d9c565b6102b1610345366004612d42565b611047565b6006546102b7565b61035a611168565b6040516102359190612e8b565b610251610375366004612a5d565b611379565b610251610388366004612a5d565b611624565b6102b161039b366004612e4f565b6118cf565b600a546102b7565b6102866103b6366004612a5d565b6118ef565b6102516103c9366004612a5d565b6118fa565b6102b76103dc366004612f07565b611ba5565b6102b1611c01565b7f9016d09d72d40fdae2fd8ceac6b6234c7706214fd39c1cd1e609a0528c199300546001600160a01b0316610286565b6007546102b7565b610266611c15565b6102b1610437366004612f22565b611c54565b6102b161044a366004612fd1565b611ce1565b6102b161045d366004612d42565b611cec565b6102b1610470366004613008565b611e0d565b610266610483366004612a5d565b611e25565b6008546102b7565b6102b161049e366004613078565b611e9a565b6102296104b1366004613078565b611fac565b6102b16104c4366004612f07565b611ff9565b60006001600160e01b031982166380ac58cd60e01b14806104fa57506001600160e01b03198216635b5e139f60e01b145b8061051557506301ffc9a760e01b6001600160e01b03198316145b92915050565b6105466040518060800160405280606081526020016000815260200160608152602001606081525090565b6008548210610568576040516363df817160e01b815260040160405180910390fd5b6000828152600d602052604090819020815160808101909252805482908290610590906130ab565b80601f01602080910402602001604051908101604052809291908181526020018280546105bc906130ab565b80156106095780601f106105de57610100808354040283529160200191610609565b820191906000526020600020905b8154815290600101906020018083116105ec57829003601f168201915b505050505081526020016001820154815260200160028201805480602002602001604051908101604052809291908181526020016000905b828210156106ed578382906000526020600020018054610660906130ab565b80601f016020809104026020016040519081016040528092919081815260200182805461068c906130ab565b80156106d95780601f106106ae576101008083540402835291602001916106d9565b820191906000526020600020905b8154815290600101906020018083116106bc57829003601f168201915b505050505081526020019060010190610641565b50505050815260200160038201805480602002602001604051908101604052809291908181526020016000905b828210156107c6578382906000526020600020018054610739906130ab565b80601f0160208091040260200160405190810160405280929190818152602001828054610765906130ab565b80156107b25780601f10610787576101008083540402835291602001916107b2565b820191906000526020600020905b81548152906001019060200180831161079557829003601f168201915b50505050508152602001906001019061071a565b505050915250909392505050565b60008051602061329483398151915280546060919081906107f4906130ab565b80601f0160208091040260200160405190810160405280929190818152602001828054610820906130ab565b801561086d5780601f106108425761010080835404028352916020019161086d565b820191906000526020600020905b81548152906001019060200180831161085057829003601f168201915b505050505091505090565b600061088382612037565b506105158261206f565b6108988282336120a9565b5050565b6000546040516301fd3f7760e71b81523360048201526001600160a01b039091169063fe9fbb8090602401602060405180830381865afa1580156108e4573d6000803e3d6000fd5b505050506040513d601f19601f8201168201806040525081019061090891906130e5565b151560000361092a57604051632ce87eeb60e01b815260040160405180910390fd5b604080516080810182528481524260208083019190915281830185905260608201849052600a546000908152600f909152919091208151819061096d908261314a565b50602082810151600183015560408301518051610990926002850192019061296d565b50606082015180516109ac91600384019160209091019061296d565b5050600a8054600101905550505050565b7ff0c57e16840df040f15088dc2f81fe391c3923bec73e23a9662efc9c229c6a00805460019190600160401b900460ff1680610a075750805467ffffffffffffffff808416911610155b15610a255760405163f92ee8a960e01b815260040160405180910390fd5b805468ffffffffffffffffff191667ffffffffffffffff831617600160401b178155610a50866120b6565b610a5a84846120c7565b600080546001600160a01b0319166001600160a01b038716179055805468ff00000000000000001916815560405167ffffffffffffffff831681527fc7f505b2f371ae2175ee4913f4499e1f2633a7b5936321eed1cdaeb6115181d29060200160405180910390a1505050505050565b6000546040516301fd3f7760e71b81523360048201526001600160a01b039091169063fe9fbb8090602401602060405180830381865afa158015610b12573d6000803e3d6000fd5b505050506040513d601f19601f82011682018060405250810190610b3691906130e5565b1515600003610b5857604051632ce87eeb60e01b815260040160405180910390fd5b6040805160808101825284815242602080830191909152818301859052606082018490526006546000908152600b9091529190912081518190610b9b908261314a565b50602082810151600183015560408301518051610bbe926002850192019061296d565b5060608201518051610bda91600384019160209091019061296d565b505060068054600101905550505050565b6001600160a01b038216610c1a57604051633250574960e11b8152600060048201526024015b60405180910390fd5b6000610c278383336120d9565b9050836001600160a01b0316816001600160a01b031614610c75576040516364283d7b60e01b81526001600160a01b0380861660048301526024820184905282166044820152606401610c11565b50505050565b6000546040516301fd3f7760e71b81523360048201526001600160a01b039091169063fe9fbb8090602401602060405180830381865afa158015610cc3573d6000803e3d6000fd5b505050506040513d601f19601f82011682018060405250810190610ce791906130e5565b1515600003610d0957604051632ce87eeb60e01b815260040160405180910390fd5b6040805160808101825284815242602080830191909152818301859052606082018490526008546000908152600d9091529190912081518190610d4c908261314a565b50602082810151600183015560408301518051610d6f926002850192019061296d565b5060608201518051610d8b91600384019160209091019061296d565b505060088054600101905550505050565b610dc76040518060800160405280606081526020016000815260200160608152602001606081525090565b6007548210610de9576040516363df817160e01b815260040160405180910390fd5b6000828152600c602052604090819020815160808101909252805482908290610e11906130ab565b80601f0160208091040260200160405190810160405280929190818152602001828054610e3d906130ab565b8015610e8a5780601f10610e5f57610100808354040283529160200191610e8a565b820191906000526020600020905b815481529060010190602001808311610e6d57829003601f168201915b505050505081526020016001820154815260200160028201805480602002602001604051908101604052809291908181526020016000905b82821015610f6e578382906000526020600020018054610ee1906130ab565b80601f0160208091040260200160405190810160405280929190818152602001828054610f0d906130ab565b8015610f5a5780601f10610f2f57610100808354040283529160200191610f5a565b820191906000526020600020905b815481529060010190602001808311610f3d57829003601f168201915b505050505081526020019060010190610ec2565b50505050815260200160038201805480602002602001604051908101604052809291908181526020016000905b828210156107c6578382906000526020600020018054610fba906130ab565b80601f0160208091040260200160405190810160405280929190818152602001828054610fe6906130ab565b80156110335780601f1061100857610100808354040283529160200191611033565b820191906000526020600020905b81548152906001019060200180831161101657829003601f168201915b505050505081526020019060010190610f9b565b6000546040516301fd3f7760e71b81523360048201526001600160a01b039091169063fe9fbb8090602401602060405180830381865afa15801561108f573d6000803e3d6000fd5b505050506040513d601f19601f820116820180604052508101906110b391906130e5565b15156000036110d557604051632ce87eeb60e01b815260040160405180910390fd5b6040805160808101825284815242602080830191909152818301859052606082018490526009546000908152600e9091529190912081518190611118908261314a565b5060208281015160018301556040830151805161113b926002850192019061296d565b506060820151805161115791600384019160209091019061296d565b505060098054600101905550505050565b61119d6040518060a00160405280600060ff168152602001606081526020016060815260200160608152602001600081525090565b6040805160a081019091526001805460ff168252600280546020840191906111c4906130ab565b80601f01602080910402602001604051908101604052809291908181526020018280546111f0906130ab565b801561123d5780601f106112125761010080835404028352916020019161123d565b820191906000526020600020905b81548152906001019060200180831161122057829003601f168201915b50505050508152602001600282018054611256906130ab565b80601f0160208091040260200160405190810160405280929190818152602001828054611282906130ab565b80156112cf5780601f106112a4576101008083540402835291602001916112cf565b820191906000526020600020905b8154815290600101906020018083116112b257829003601f168201915b505050505081526020016003820180546112e8906130ab565b80601f0160208091040260200160405190810160405280929190818152602001828054611314906130ab565b80156113615780601f1061133657610100808354040283529160200191611361565b820191906000526020600020905b81548152906001019060200180831161134457829003601f168201915b50505050508152602001600482015481525050905090565b6113a46040518060800160405280606081526020016000815260200160608152602001606081525090565b600a5482106113c6576040516363df817160e01b815260040160405180910390fd5b6000828152600f6020526040908190208151608081019092528054829082906113ee906130ab565b80601f016020809104026020016040519081016040528092919081815260200182805461141a906130ab565b80156114675780601f1061143c57610100808354040283529160200191611467565b820191906000526020600020905b81548152906001019060200180831161144a57829003601f168201915b505050505081526020016001820154815260200160028201805480602002602001604051908101604052809291908181526020016000905b8282101561154b5783829060005260206000200180546114be906130ab565b80601f01602080910402602001604051908101604052809291908181526020018280546114ea906130ab565b80156115375780601f1061150c57610100808354040283529160200191611537565b820191906000526020600020905b81548152906001019060200180831161151a57829003601f168201915b50505050508152602001906001019061149f565b50505050815260200160038201805480602002602001604051908101604052809291908181526020016000905b828210156107c6578382906000526020600020018054611597906130ab565b80601f01602080910402602001604051908101604052809291908181526020018280546115c3906130ab565b80156116105780601f106115e557610100808354040283529160200191611610565b820191906000526020600020905b8154815290600101906020018083116115f357829003601f168201915b505050505081526020019060010190611578565b61164f6040518060800160405280606081526020016000815260200160608152602001606081525090565b6009548210611671576040516363df817160e01b815260040160405180910390fd5b6000828152600e602052604090819020815160808101909252805482908290611699906130ab565b80601f01602080910402602001604051908101604052809291908181526020018280546116c5906130ab565b80156117125780601f106116e757610100808354040283529160200191611712565b820191906000526020600020905b8154815290600101906020018083116116f557829003601f168201915b505050505081526020016001820154815260200160028201805480602002602001604051908101604052809291908181526020016000905b828210156117f6578382906000526020600020018054611769906130ab565b80601f0160208091040260200160405190810160405280929190818152602001828054611795906130ab565b80156117e25780601f106117b7576101008083540402835291602001916117e2565b820191906000526020600020905b8154815290600101906020018083116117c557829003601f168201915b50505050508152602001906001019061174a565b50505050815260200160038201805480602002602001604051908101604052809291908181526020016000905b828210156107c6578382906000526020600020018054611842906130ab565b80601f016020809104026020016040519081016040528092919081815260200182805461186e906130ab565b80156118bb5780601f10611890576101008083540402835291602001916118bb565b820191906000526020600020905b81548152906001019060200180831161189e57829003601f168201915b505050505081526020019060010190611823565b6118ea83838360405180602001604052806000815250611e0d565b505050565b600061051582612037565b6119256040518060800160405280606081526020016000815260200160608152602001606081525090565b6006548210611947576040516363df817160e01b815260040160405180910390fd5b6000828152600c60205260409081902081516080810190925280548290829061196f906130ab565b80601f016020809104026020016040519081016040528092919081815260200182805461199b906130ab565b80156119e85780601f106119bd576101008083540402835291602001916119e8565b820191906000526020600020905b8154815290600101906020018083116119cb57829003601f168201915b505050505081526020016001820154815260200160028201805480602002602001604051908101604052809291908181526020016000905b82821015611acc578382906000526020600020018054611a3f906130ab565b80601f0160208091040260200160405190810160405280929190818152602001828054611a6b906130ab565b8015611ab85780601f10611a8d57610100808354040283529160200191611ab8565b820191906000526020600020905b815481529060010190602001808311611a9b57829003601f168201915b505050505081526020019060010190611a20565b50505050815260200160038201805480602002602001604051908101604052809291908181526020016000905b828210156107c6578382906000526020600020018054611b18906130ab565b80601f0160208091040260200160405190810160405280929190818152602001828054611b44906130ab565b8015611b915780601f10611b6657610100808354040283529160200191611b91565b820191906000526020600020905b815481529060010190602001808311611b7457829003601f168201915b505050505081526020019060010190611af9565b60006000805160206132948339815191526001600160a01b038316611be0576040516322718ad960e21b815260006004820152602401610c11565b6001600160a01b039092166000908152600390920160205250604090205490565b611c096121e3565b611c13600061223e565b565b7f80bb2b638cc20bc4d0a60d66940f3ab4a00c1d7b313497ca82fb0b4ab00793018054606091600080516020613294833981519152916107f4906130ab565b611c5c6121e3565b611c678560016122af565b611c7384848484612314565b843b63ffffffff1615611cda576040516372a423ef60e01b81523060048201526001600160a01b038616906372a423ef90602401600060405180830381600087803b158015611cc157600080fd5b505af1158015611cd5573d6000803e3d6000fd5b505050505b5050505050565b610898338383612393565b6000546040516301fd3f7760e71b81523360048201526001600160a01b039091169063fe9fbb8090602401602060405180830381865afa158015611d34573d6000803e3d6000fd5b505050506040513d601f19601f82011682018060405250810190611d5891906130e5565b1515600003611d7a57604051632ce87eeb60e01b815260040160405180910390fd5b6040805160808101825284815242602080830191909152818301859052606082018490526007546000908152600c9091529190912081518190611dbd908261314a565b50602082810151600183015560408301518051611de0926002850192019061296d565b5060608201518051611dfc91600384019160209091019061296d565b505060078054600101905550505050565b611e18848484610beb565b610c753385858585612444565b6060611e3082612037565b506000611e4860408051602081019091526000815290565b90506000815111611e685760405180602001604052806000815250611e93565b80611e7284612566565b604051602001611e8392919061320a565b6040516020818303038152906040525b9392505050565b33611ea560016118ef565b6001600160a01b031614158015611f2557506000546040516301fd3f7760e71b81523360048201526001600160a01b039091169063fe9fbb8090602401602060405180830381865afa158015611eff573d6000803e3d6000fd5b505050506040513d601f19601f82011682018060405250810190611f2391906130e5565b155b15611f4357604051633ee83f6760e11b815260040160405180910390fd5b611f4f828260016118cf565b6040516372a423ef60e01b81523060048201526001600160a01b038216906372a423ef90602401600060405180830381600087803b158015611f9057600080fd5b505af1158015611fa4573d6000803e3d6000fd5b505050505050565b6001600160a01b0391821660009081527f80bb2b638cc20bc4d0a60d66940f3ab4a00c1d7b313497ca82fb0b4ab00793056020908152604080832093909416825291909152205460ff1690565b6120016121e3565b6001600160a01b03811661202b57604051631e4fbdf760e01b815260006004820152602401610c11565b6120348161223e565b50565b600080612043836125f9565b90506001600160a01b03811661051557604051637e27328960e01b815260048101849052602401610c11565b60009081527f80bb2b638cc20bc4d0a60d66940f3ab4a00c1d7b313497ca82fb0b4ab007930460205260409020546001600160a01b031690565b6118ea8383836001612633565b6120be612749565b61203481612792565b6120cf612749565b610898828261279a565b6000600080516020613294833981519152816120f4856125f9565b90506001600160a01b03841615612110576121108185876127cb565b6001600160a01b038116156121505761212d600086600080612633565b6001600160a01b0381166000908152600383016020526040902080546000190190555b6001600160a01b03861615612181576001600160a01b03861660009081526003830160205260409020805460010190555b600085815260028301602052604080822080546001600160a01b0319166001600160a01b038a811691821790925591518893918516917fddf252ad1be2c89b69c2b068fc378daa952ba7f163c4a11628f55a4df523b3ef91a495945050505050565b336122157f9016d09d72d40fdae2fd8ceac6b6234c7706214fd39c1cd1e609a0528c199300546001600160a01b031690565b6001600160a01b031614611c135760405163118cdaa760e01b8152336004820152602401610c11565b7f9016d09d72d40fdae2fd8ceac6b6234c7706214fd39c1cd1e609a0528c19930080546001600160a01b031981166001600160a01b03848116918217845560405192169182907f8be0079c531659141344cd1fd0a4f28419497f9722a3daafe3b4186f6b6457e090600090a3505050565b6001600160a01b0382166122d957604051633250574960e11b815260006004820152602401610c11565b60006122e7838360006120d9565b90506001600160a01b038116156118ea576040516339e3563760e11b815260006004820152602401610c11565b6040805160a0810182526001808252602082018790529181018590526060810184905260808101839052815460ff191682178255906002612355878261314a565b506040820151600282019061236a908261314a565b506060820151600382019061237f908261314a565b506080820151816004015590505050505050565b6000805160206132948339815191526001600160a01b0383166123d457604051630b61174360e31b81526001600160a01b0384166004820152602401610c11565b6001600160a01b038481166000818152600584016020908152604080832094881680845294825291829020805460ff191687151590811790915591519182527f17307eab39ab6107e8899845ad3d59bd9653f200f220920489ca2b5937696c31910160405180910390a350505050565b6001600160a01b0383163b15611cda57604051630a85bd0160e11b81526001600160a01b0384169063150b7a0290612486908890889087908790600401613239565b6020604051808303816000875af19250505080156124c1575060408051601f3d908101601f191682019092526124be91810190613276565b60015b61252a573d8080156124ef576040519150601f19603f3d011682016040523d82523d6000602084013e6124f4565b606091505b50805160000361252257604051633250574960e11b81526001600160a01b0385166004820152602401610c11565b805181602001fd5b6001600160e01b03198116630a85bd0160e11b14611fa457604051633250574960e11b81526001600160a01b0385166004820152602401610c11565b606060006125738361282f565b600101905060008167ffffffffffffffff81111561259357612593612be4565b6040519080825280601f01601f1916602001820160405280156125bd576020820181803683370190505b5090508181016020015b600019016f181899199a1a9b1b9c1cb0b131b232b360811b600a86061a8153600a85049450846125c757509392505050565b60009081527f80bb2b638cc20bc4d0a60d66940f3ab4a00c1d7b313497ca82fb0b4ab007930260205260409020546001600160a01b031690565b600080516020613294833981519152818061265657506001600160a01b03831615155b1561271857600061266685612037565b90506001600160a01b038416158015906126925750836001600160a01b0316816001600160a01b031614155b80156126a557506126a38185611fac565b155b156126ce5760405163a9fbf51f60e01b81526001600160a01b0385166004820152602401610c11565b82156127165784866001600160a01b0316826001600160a01b03167f8c5be1e5ebec7d5bd14f71427d1e84f3dd0314c0f7b2291e5b200ac8c7c3b92560405160405180910390a45b505b600093845260040160205250506040902080546001600160a01b0319166001600160a01b0392909216919091179055565b7ff0c57e16840df040f15088dc2f81fe391c3923bec73e23a9662efc9c229c6a0054600160401b900460ff16611c1357604051631afcd79f60e31b815260040160405180910390fd5b612001612749565b6127a2612749565b600080516020613294833981519152806127bc848261314a565b5060018101610c75838261314a565b6127d6838383612907565b6118ea576001600160a01b03831661280457604051637e27328960e01b815260048101829052602401610c11565b60405163177e802f60e01b81526001600160a01b038316600482015260248101829052604401610c11565b60008072184f03e93ff9f4daa797ed6e38ed64bf6a1f0160401b831061286e5772184f03e93ff9f4daa797ed6e38ed64bf6a1f0160401b830492506040015b6d04ee2d6d415b85acef8100000000831061289a576d04ee2d6d415b85acef8100000000830492506020015b662386f26fc1000083106128b857662386f26fc10000830492506010015b6305f5e10083106128d0576305f5e100830492506008015b61271083106128e457612710830492506004015b606483106128f6576064830492506002015b600a83106105155760010192915050565b60006001600160a01b038316158015906129655750826001600160a01b0316846001600160a01b0316148061294157506129418484611fac565b806129655750826001600160a01b031661295a8361206f565b6001600160a01b0316145b949350505050565b8280548282559060005260206000209081019282156129b3579160200282015b828111156129b357825182906129a3908261314a565b509160200191906001019061298d565b506129bf9291506129c3565b5090565b808211156129bf5760006129d782826129e0565b506001016129c3565b5080546129ec906130ab565b6000825580601f106129fc575050565b601f01602090049060005260206000209081019061203491905b808211156129bf5760008155600101612a16565b6001600160e01b03198116811461203457600080fd5b600060208284031215612a5257600080fd5b8135611e9381612a2a565b600060208284031215612a6f57600080fd5b5035919050565b60005b83811015612a91578181015183820152602001612a79565b50506000910152565b60008151808452612ab2816020860160208601612a76565b601f01601f19169290920160200192915050565b60008282518085526020808601955060208260051b8401016020860160005b84811015612b1357601f19868403018952612b01838351612a9a565b98840198925090830190600101612ae5565b5090979650505050505050565b602081526000825160806020840152612b3c60a0840182612a9a565b9050602084015160408401526040840151601f1980858403016060860152612b648383612ac6565b9250606086015191508085840301608086015250612b828282612ac6565b95945050505050565b602081526000611e936020830184612a9a565b80356001600160a01b0381168114612bb557600080fd5b919050565b60008060408385031215612bcd57600080fd5b612bd683612b9e565b946020939093013593505050565b634e487b7160e01b600052604160045260246000fd5b604051601f8201601f1916810167ffffffffffffffff81118282101715612c2357612c23612be4565b604052919050565b600067ffffffffffffffff831115612c4557612c45612be4565b612c58601f8401601f1916602001612bfa565b9050828152838383011115612c6c57600080fd5b828260208301376000602084830101529392505050565b600082601f830112612c9457600080fd5b611e9383833560208501612c2b565b600082601f830112612cb457600080fd5b8135602067ffffffffffffffff80831115612cd157612cd1612be4565b8260051b612ce0838201612bfa565b9384528581018301938381019088861115612cfa57600080fd5b84880192505b85831015612d3657823584811115612d185760008081fd5b612d268a87838c0101612c83565b8352509184019190840190612d00565b98975050505050505050565b600080600060608486031215612d5757600080fd5b833567ffffffffffffffff80821115612d6f57600080fd5b612d7b87838801612c83565b94506020860135915080821115612d9157600080fd5b612d9d87838801612ca3565b93506040860135915080821115612db357600080fd5b50612dc086828701612ca3565b9150509250925092565b60008060008060808587031215612de057600080fd5b612de985612b9e565b9350612df760208601612b9e565b9250604085013567ffffffffffffffff80821115612e1457600080fd5b612e2088838901612c83565b93506060870135915080821115612e3657600080fd5b50612e4387828801612c83565b91505092959194509250565b600080600060608486031215612e6457600080fd5b612e6d84612b9e565b9250612e7b60208501612b9e565b9150604084013590509250925092565b6020815260ff82511660208201526000602083015160a06040840152612eb460c0840182612a9a565b90506040840151601f1980858403016060860152612ed28383612a9a565b9250606086015191508085840301608086015250612ef08282612a9a565b915050608084015160a08401528091505092915050565b600060208284031215612f1957600080fd5b611e9382612b9e565b600080600080600060a08688031215612f3a57600080fd5b612f4386612b9e565b9450602086013567ffffffffffffffff80821115612f6057600080fd5b612f6c89838a01612c83565b95506040880135915080821115612f8257600080fd5b612f8e89838a01612c83565b94506060880135915080821115612fa457600080fd5b50612fb188828901612c83565b95989497509295608001359392505050565b801515811461203457600080fd5b60008060408385031215612fe457600080fd5b612fed83612b9e565b91506020830135612ffd81612fc3565b809150509250929050565b6000806000806080858703121561301e57600080fd5b61302785612b9e565b935061303560208601612b9e565b925060408501359150606085013567ffffffffffffffff81111561305857600080fd5b8501601f8101871361306957600080fd5b612e4387823560208401612c2b565b6000806040838503121561308b57600080fd5b61309483612b9e565b91506130a260208401612b9e565b90509250929050565b600181811c908216806130bf57607f821691505b6020821081036130df57634e487b7160e01b600052602260045260246000fd5b50919050565b6000602082840312156130f757600080fd5b8151611e9381612fc3565b601f8211156118ea576000816000526020600020601f850160051c8101602086101561312b5750805b601f850160051c820191505b81811015611fa457828155600101613137565b815167ffffffffffffffff81111561316457613164612be4565b6131788161317284546130ab565b84613102565b602080601f8311600181146131ad57600084156131955750858301515b600019600386901b1c1916600185901b178555611fa4565b600085815260208120601f198616915b828110156131dc578886015182559484019460019091019084016131bd565b50858210156131fa5787850151600019600388901b60f8161c191681555b5050505050600190811b01905550565b6000835161321c818460208801612a76565b835190830190613230818360208801612a76565b01949350505050565b6001600160a01b038581168252841660208201526040810183905260806060820181905260009061326c90830184612a9a565b9695505050505050565b60006020828403121561328857600080fd5b8151611e9381612a2a56fe80bb2b638cc20bc4d0a60d66940f3ab4a00c1d7b313497ca82fb0b4ab0079300a26469706673582212206a15105568481ef21c9797f57a21bc5c739af8ba8374904573fd417845b8324464736f6c63430008190033",
    "linkReferences": {}
  },
  "methodIdentifiers": {
    "addEvent(string,string[],string[])": "23930af7",
    "addEventCo2(string,string[],string[])": "adc2f01b",
    "addEventRawMaterialsPercent(string,string[],string[])": "25c0fcf3",
    "addEventStatesLifeCycle(string,string[],string[])": "1a393e68",
    "addEventTracability(string,string[],string[])": "2d621d57",
    "approve(address,uint256)": "095ea7b3",
    "balanceOf(address)": "70a08231",
    "getApproved(uint256)": "081812fc",
    "getEvent(uint256)": "6d1884e0",
    "getEventCo2(uint256)": "2893abbf",
    "getEventRawMaterialsPercent(uint256)": "04971ef5",
    "getEventStatesLifeCycle(uint256)": "3d648b2b",
    "getEventTracability(uint256)": "3d85b91b",
    "getEventsCount()": "30366d5f",
    "getEventsCountCo2()": "9432ffe0",
    "getEventsCountRawMaterialsPercent()": "dd7388fe",
    "getEventsCountStatesLifeCycle()": "4b3e8836",
    "getEventsCountTracability()": "0a8b9cae",
    "initialize(address,address,string,string)": "2016a0d2",
    "isApprovedForAll(address,address)": "e985e9c5",
    "metadata()": "392f37e9",
    "mint(address,string,string,string,uint256)": "9ee74dd1",
    "name()": "06fdde03",
    "owner()": "8da5cb5b",
    "ownerOf(uint256)": "6352211e",
    "renounceOwnership()": "715018a6",
    "safeTransferFrom(address,address,uint256)": "42842e0e",
    "safeTransferFrom(address,address,uint256,bytes)": "b88d4fde",
    "setApprovalForAll(address,bool)": "a22cb465",
    "supportsInterface(bytes4)": "01ffc9a7",
    "symbol()": "95d89b41",
    "tokenURI(uint256)": "c87b56dd",
    "transferFrom(address,address,uint256)": "23b872dd",
    "transferOwnership(address)": "f2fde38b",
    "transferToVehicle(address,address)": "e46af525"
  },
  "id": 50
}