{
  "abi": [
    {
      "type": "constructor",
      "inputs": [
        {
          "name": "initialOwner",
          "type": "address",
          "internalType": "address"
        },
        {
          "name": "vehicleBeaconAddress",
          "type": "address",
          "internalType": "address"
        },
        {
          "name": "batteryBeaconAddress",
          "type": "address",
          "internalType": "address"
        }
      ],
      "stateMutability": "nonpayable"
    },
    {
      "type": "function",
      "name": "computeProxyBatteryAddress",
      "inputs": [
        {
          "name": "batteryId",
          "type": "string",
          "internalType": "string"
        }
      ],
      "outputs": [
        {
          "name": "",
          "type": "address",
          "internalType": "address"
        }
      ],
      "stateMutability": "view"
    },
    {
      "type": "function",
      "name": "computeProxyVehicleAddress",
      "inputs": [
        {
          "name": "vin",
          "type": "string",
          "internalType": "string"
        }
      ],
      "outputs": [
        {
          "name": "",
          "type": "address",
          "internalType": "address"
        }
      ],
      "stateMutability": "view"
    },
    {
      "type": "function",
      "name": "deployProxyBattery",
      "inputs": [
        {
          "name": "data",
          "type": "bytes",
          "internalType": "bytes"
        },
        {
          "name": "batteryId",
          "type": "string",
          "internalType": "string"
        }
      ],
      "outputs": [
        {
          "name": "addr",
          "type": "address",
          "internalType": "address"
        }
      ],
      "stateMutability": "nonpayable"
    },
    {
      "type": "function",
      "name": "deployProxyVehicle",
      "inputs": [
        {
          "name": "data",
          "type": "bytes",
          "internalType": "bytes"
        },
        {
          "name": "vin",
          "type": "string",
          "internalType": "string"
        }
      ],
      "outputs": [
        {
          "name": "addr",
          "type": "address",
          "internalType": "address"
        }
      ],
      "stateMutability": "nonpayable"
    },
    {
      "type": "function",
      "name": "owner",
      "inputs": [],
      "outputs": [
        {
          "name": "",
          "type": "address",
          "internalType": "address"
        }
      ],
      "stateMutability": "view"
    },
    {
      "type": "function",
      "name": "renounceOwnership",
      "inputs": [],
      "outputs": [],
      "stateMutability": "nonpayable"
    },
    {
      "type": "function",
      "name": "transferOwnership",
      "inputs": [
        {
          "name": "newOwner",
          "type": "address",
          "internalType": "address"
        }
      ],
      "outputs": [],
      "stateMutability": "nonpayable"
    },
    {
      "type": "event",
      "name": "OwnershipTransferred",
      "inputs": [
        {
          "name": "previousOwner",
          "type": "address",
          "indexed": true,
          "internalType": "address"
        },
        {
          "name": "newOwner",
          "type": "address",
          "indexed": true,
          "internalType": "address"
        }
      ],
      "anonymous": false
    },
    {
      "type": "event",
      "name": "ProxyBatteryDeployed",
      "inputs": [
        {
          "name": "addr",
          "type": "address",
          "indexed": false,
          "internalType": "address"
        },
        {
          "name": "batteryId",
          "type": "string",
          "indexed": false,
          "internalType": "string"
        }
      ],
      "anonymous": false
    },
    {
      "type": "event",
      "name": "ProxyVehicleDeployed",
      "inputs": [
        {
          "name": "addr",
          "type": "address",
          "indexed": false,
          "internalType": "address"
        },
        {
          "name": "vin",
          "type": "string",
          "indexed": false,
          "internalType": "string"
        }
      ],
      "anonymous": false
    },
    {
      "type": "error",
      "name": "InitializationFailed",
      "inputs": []
    },
    {
      "type": "error",
      "name": "OwnableInvalidOwner",
      "inputs": [
        {
          "name": "owner",
          "type": "address",
          "internalType": "address"
        }
      ]
    },
    {
      "type": "error",
      "name": "OwnableUnauthorizedAccount",
      "inputs": [
        {
          "name": "account",
          "type": "address",
          "internalType": "address"
        }
      ]
    }
  ],
  "bytecode": {
    "object": "0x608060405234801561001057600080fd5b506040516114e83803806114e883398101604081905261002f91610106565b826001600160a01b03811661005e57604051631e4fbdf760e01b81526000600482015260240160405180910390fd5b6100678161009a565b50600180546001600160a01b039384166001600160a01b0319918216179091556002805492909316911617905550610149565b600080546001600160a01b038381166001600160a01b0319831681178455604051919092169283917f8be0079c531659141344cd1fd0a4f28419497f9722a3daafe3b4186f6b6457e09190a35050565b80516001600160a01b038116811461010157600080fd5b919050565b60008060006060848603121561011b57600080fd5b610124846100ea565b9250610132602085016100ea565b9150610140604085016100ea565b90509250925092565b611390806101586000396000f3fe608060405234801561001057600080fd5b506004361061007d5760003560e01c8063b25e2f0b1161005b578063b25e2f0b146100cc578063ce3878f1146100df578063ddd6c3d2146100f2578063f2fde38b1461010557600080fd5b8063421b6de314610082578063715018a6146100b15780638da5cb5b146100bb575b600080fd5b610095610090366004610626565b610118565b6040516001600160a01b03909116815260200160405180910390f35b6100b9610223565b005b6000546001600160a01b0316610095565b6100956100da366004610626565b610237565b6100956100ed3660046106a1565b61032e565b6100956101003660046106a1565b6103b8565b6100b96101133660046106de565b6103df565b6000610122610422565b60015460009061013a906001600160a01b031661044f565b90506000610147846104c7565b60001c9050808251602084016000f59250823b61016357600080fd5b6000836001600160a01b03168660405161017d919061072b565b6000604051808303816000865af19150503d80600081146101ba576040519150601f19603f3d011682016040523d82523d6000602084013e6101bf565b606091505b50509050806101e157604051630337323560e31b815260040160405180910390fd5b7fa679ebfa300da540a01f1751b9302de05b55173ea6b45134c7b09a4fecaedaf58486604051610212929190610747565b60405180910390a150505092915050565b61022b610422565b61023560006104f7565b565b6000610241610422565b600254600090610259906001600160a01b0316610547565b90506000610266846104c7565b9050808251602084016000f59250823b61027f57600080fd5b6000836001600160a01b031686604051610299919061072b565b6000604051808303816000865af19150503d80600081146102d6576040519150601f19603f3d011682016040523d82523d6000602084013e6102db565b606091505b50509050806102fd57604051630337323560e31b815260040160405180910390fd5b7f1f57581c6b96c0cf5c9e7a7641271ba0568ea53ebb091b3a12d2b4dcff3df99b8486604051610212929190610747565b60008061033a836104c7565b600254909150600090610355906001600160a01b0316610547565b8051602091820120604080516001600160f81b0319818501523060601b6bffffffffffffffffffffffff19166021820152603581019590955260558086019290925280518086039092018252607590940190935282519201919091209392505050565b6000806103c4836104c7565b600154909150600090610355906001600160a01b031661044f565b6103e7610422565b6001600160a01b03811661041657604051631e4fbdf760e01b8152600060048201526024015b60405180910390fd5b61041f816104f7565b50565b6000546001600160a01b031633146102355760405163118cdaa760e01b815233600482015260240161040d565b60606040518060200161046190610559565b601f1982820381018352601f9091011660408181526001600160a01b0385166020830152808201526000606082015260800160408051601f19818403018152908290526104b19291602001610789565b6040516020818303038152906040529050919050565b6000816040516020016104da919061072b565b604051602081830303815290604052805190602001209050919050565b600080546001600160a01b038381166001600160a01b0319831681178455604051919092169283917f8be0079c531659141344cd1fd0a4f28419497f9722a3daafe3b4186f6b6457e09190a35050565b60606040518060200161046190610566565b6105d1806107b983390190565b6105d180610d8a83390190565b634e487b7160e01b600052604160045260246000fd5b600067ffffffffffffffff808411156105a4576105a4610573565b604051601f8501601f19908116603f011681019082821181831017156105cc576105cc610573565b816040528093508581528686860111156105e557600080fd5b858560208301376000602087830101525050509392505050565b600082601f83011261061057600080fd5b61061f83833560208501610589565b9392505050565b6000806040838503121561063957600080fd5b823567ffffffffffffffff8082111561065157600080fd5b818501915085601f83011261066557600080fd5b61067486833560208501610589565b9350602085013591508082111561068a57600080fd5b50610697858286016105ff565b9150509250929050565b6000602082840312156106b357600080fd5b813567ffffffffffffffff8111156106ca57600080fd5b6106d6848285016105ff565b949350505050565b6000602082840312156106f057600080fd5b81356001600160a01b038116811461061f57600080fd5b60005b8381101561072257818101518382015260200161070a565b50506000910152565b6000825161073d818460208701610707565b9190910192915050565b60018060a01b03831681526040602082015260008251806040840152610774816060850160208701610707565b601f01601f1916919091016060019392505050565b6000835161079b818460208801610707565b8351908301906107af818360208801610707565b0194935050505056fe60a060405234801561001057600080fd5b506040516105d13803806105d183398101604081905261002f91610399565b818161003b8282610050565b506001600160a01b0316608052506104909050565b61005982610110565b6040516001600160a01b038316907f1cf3b03a6cf19fa2baba4df148e9dcabedea7f8a5c07840e207e5c089be95d3e90600090a2805115610104576100ff826001600160a01b0316635c60da1b6040518163ffffffff1660e01b8152600401602060405180830381865afa1580156100d5573d6000803e3d6000fd5b505050506040513d601f19601f820116820180604052508101906100f99190610459565b82610223565b505050565b61010c61029a565b5050565b806001600160a01b03163b60000361014b57604051631933b43b60e21b81526001600160a01b03821660048201526024015b60405180910390fd5b807fa3f0ad74e5423aebfd80d3ef4346578335a9a72aeaee59ff6cb3582b35133d5080546001600160a01b0319166001600160a01b0392831617905560408051635c60da1b60e01b81529051600092841691635c60da1b9160048083019260209291908290030181865afa1580156101c7573d6000803e3d6000fd5b505050506040513d601f19601f820116820180604052508101906101eb9190610459565b9050806001600160a01b03163b60000361010c57604051634c9c8ce360e01b81526001600160a01b0382166004820152602401610142565b6060600080846001600160a01b0316846040516102409190610474565b600060405180830381855af49150503d806000811461027b576040519150601f19603f3d011682016040523d82523d6000602084013e610280565b606091505b5090925090506102918583836102bb565b95945050505050565b34156102b95760405163b398979f60e01b815260040160405180910390fd5b565b6060826102d0576102cb8261031a565b610313565b81511580156102e757506001600160a01b0384163b155b1561031057604051639996b31560e01b81526001600160a01b0385166004820152602401610142565b50805b9392505050565b80511561032a5780518082602001fd5b60405163d6bda27560e01b815260040160405180910390fd5b80516001600160a01b038116811461035a57600080fd5b919050565b634e487b7160e01b600052604160045260246000fd5b60005b83811015610390578181015183820152602001610378565b50506000910152565b600080604083850312156103ac57600080fd5b6103b583610343565b60208401519092506001600160401b03808211156103d257600080fd5b818501915085601f8301126103e657600080fd5b8151818111156103f8576103f861035f565b604051601f8201601f19908116603f011681019083821181831017156104205761042061035f565b8160405282815288602084870101111561043957600080fd5b61044a836020830160208801610375565b80955050505050509250929050565b60006020828403121561046b57600080fd5b61031382610343565b60008251610486818460208701610375565b9190910192915050565b6080516101276104aa6000396000601e01526101276000f3fe6080604052600a600c565b005b60186014601a565b60a0565b565b60007f00000000000000000000000000000000000000000000000000000000000000006001600160a01b0316635c60da1b6040518163ffffffff1660e01b8152600401602060405180830381865afa1580156079573d6000803e3d6000fd5b505050506040513d601f19601f82011682018060405250810190609b919060c3565b905090565b3660008037600080366000845af43d6000803e80801560be573d6000f35b3d6000fd5b60006020828403121560d457600080fd5b81516001600160a01b038116811460ea57600080fd5b939250505056fea2646970667358221220abb1ea53124ec3549ed6f9bc3b95c7ad5aa7230ae18fb0a788fd267c6039f63b64736f6c6343000819003360a060405234801561001057600080fd5b506040516105d13803806105d183398101604081905261002f91610399565b818161003b8282610050565b506001600160a01b0316608052506104909050565b61005982610110565b6040516001600160a01b038316907f1cf3b03a6cf19fa2baba4df148e9dcabedea7f8a5c07840e207e5c089be95d3e90600090a2805115610104576100ff826001600160a01b0316635c60da1b6040518163ffffffff1660e01b8152600401602060405180830381865afa1580156100d5573d6000803e3d6000fd5b505050506040513d601f19601f820116820180604052508101906100f99190610459565b82610223565b505050565b61010c61029a565b5050565b806001600160a01b03163b60000361014b57604051631933b43b60e21b81526001600160a01b03821660048201526024015b60405180910390fd5b807fa3f0ad74e5423aebfd80d3ef4346578335a9a72aeaee59ff6cb3582b35133d5080546001600160a01b0319166001600160a01b0392831617905560408051635c60da1b60e01b81529051600092841691635c60da1b9160048083019260209291908290030181865afa1580156101c7573d6000803e3d6000fd5b505050506040513d601f19601f820116820180604052508101906101eb9190610459565b9050806001600160a01b03163b60000361010c57604051634c9c8ce360e01b81526001600160a01b0382166004820152602401610142565b6060600080846001600160a01b0316846040516102409190610474565b600060405180830381855af49150503d806000811461027b576040519150601f19603f3d011682016040523d82523d6000602084013e610280565b606091505b5090925090506102918583836102bb565b95945050505050565b34156102b95760405163b398979f60e01b815260040160405180910390fd5b565b6060826102d0576102cb8261031a565b610313565b81511580156102e757506001600160a01b0384163b155b1561031057604051639996b31560e01b81526001600160a01b0385166004820152602401610142565b50805b9392505050565b80511561032a5780518082602001fd5b60405163d6bda27560e01b815260040160405180910390fd5b80516001600160a01b038116811461035a57600080fd5b919050565b634e487b7160e01b600052604160045260246000fd5b60005b83811015610390578181015183820152602001610378565b50506000910152565b600080604083850312156103ac57600080fd5b6103b583610343565b60208401519092506001600160401b03808211156103d257600080fd5b818501915085601f8301126103e657600080fd5b8151818111156103f8576103f861035f565b604051601f8201601f19908116603f011681019083821181831017156104205761042061035f565b8160405282815288602084870101111561043957600080fd5b61044a836020830160208801610375565b80955050505050509250929050565b60006020828403121561046b57600080fd5b61031382610343565b60008251610486818460208701610375565b9190910192915050565b6080516101276104aa6000396000601e01526101276000f3fe6080604052600a600c565b005b60186014601a565b60a0565b565b60007f00000000000000000000000000000000000000000000000000000000000000006001600160a01b0316635c60da1b6040518163ffffffff1660e01b8152600401602060405180830381865afa1580156079573d6000803e3d6000fd5b505050506040513d601f19601f82011682018060405250810190609b919060c3565b905090565b3660008037600080366000845af43d6000803e80801560be573d6000f35b3d6000fd5b60006020828403121560d457600080fd5b81516001600160a01b038116811460ea57600080fd5b939250505056fea2646970667358221220821e9cb993fd8f95bb945cd32a88f55b883054e250ddc4da3a63a434c77c1e7564736f6c63430008190033a2646970667358221220270afdc6284f533264eb2ac7d28f589e58e200eb60be88464e58bcf5dfaca21f64736f6c63430008190033",
    "linkReferences": {}
  },
  "methodIdentifiers": {
    "computeProxyBatteryAddress(string)": "ce3878f1",
    "computeProxyVehicleAddress(string)": "ddd6c3d2",
    "deployProxyBattery(bytes,string)": "b25e2f0b",
    "deployProxyVehicle(bytes,string)": "421b6de3",
    "owner()": "8da5cb5b",
    "renounceOwnership()": "715018a6",
    "transferOwnership(address)": "f2fde38b"
  },
  "id": 51
}