{
  "abi": [
    {
      "type": "function",
      "name": "addEvent",
      "inputs": [
        {
          "name": "eventName",
          "type": "string",
          "internalType": "string"
        },
        {
          "name": "dataNames",
          "type": "string[]",
          "internalType": "string[]"
        },
        {
          "name": "dataValues",
          "type": "string[]",
          "internalType": "string[]"
        }
      ],
      "outputs": [],
      "stateMutability": "nonpayable"
    },
    {
      "type": "function",
      "name": "approve",
      "inputs": [
        {
          "name": "to",
          "type": "address",
          "internalType": "address"
        },
        {
          "name": "tokenId",
          "type": "uint256",
          "internalType": "uint256"
        }
      ],
      "outputs": [],
      "stateMutability": "nonpayable"
    },
    {
      "type": "function",
      "name": "approveERC721",
      "inputs": [
        {
          "name": "contractERC721",
          "type": "address",
          "internalType": "address"
        },
        {
          "name": "to",
          "type": "address",
          "internalType": "address"
        }
      ],
      "outputs": [],
      "stateMutability": "nonpayable"
    },
    {
      "type": "function",
      "name": "balanceOf",
      "inputs": [
        {
          "name": "owner",
          "type": "address",
          "internalType": "address"
        }
      ],
      "outputs": [
        {
          "name": "",
          "type": "uint256",
          "internalType": "uint256"
        }
      ],
      "stateMutability": "view"
    },
    {
      "type": "function",
      "name": "getApproved",
      "inputs": [
        {
          "name": "tokenId",
          "type": "uint256",
          "internalType": "uint256"
        }
      ],
      "outputs": [
        {
          "name": "",
          "type": "address",
          "internalType": "address"
        }
      ],
      "stateMutability": "view"
    },
    {
      "type": "function",
      "name": "getBatteriesHistory",
      "inputs": [],
      "outputs": [
        {
          "name": "",
          "type": "address[]",
          "internalType": "address[]"
        }
      ],
      "stateMutability": "view"
    },
    {
      "type": "function",
      "name": "getEvent",
      "inputs": [
        {
          "name": "index",
          "type": "uint256",
          "internalType": "uint256"
        }
      ],
      "outputs": [
        {
          "name": "",
          "type": "tuple",
          "internalType": "struct IMetadata.Event",
          "components": [
            {
              "name": "eventName",
              "type": "string",
              "internalType": "string"
            },
            {
              "name": "timestamp",
              "type": "uint256",
              "internalType": "uint256"
            },
            {
              "name": "dataNames",
              "type": "string[]",
              "internalType": "string[]"
            },
            {
              "name": "dataValues",
              "type": "string[]",
              "internalType": "string[]"
            }
          ]
        }
      ],
      "stateMutability": "view"
    },
    {
      "type": "function",
      "name": "getEventsCount",
      "inputs": [],
      "outputs": [
        {
          "name": "",
          "type": "uint256",
          "internalType": "uint256"
        }
      ],
      "stateMutability": "view"
    },
    {
      "type": "function",
      "name": "initialize",
      "inputs": [
        {
          "name": "contractOwner",
          "type": "address",
          "internalType": "address"
        },
        {
          "name": "authorizationContract",
          "type": "address",
          "internalType": "address"
        },
        {
          "name": "name",
          "type": "string",
          "internalType": "string"
        },
        {
          "name": "symbol",
          "type": "string",
          "internalType": "string"
        }
      ],
      "outputs": [],
      "stateMutability": "nonpayable"
    },
    {
      "type": "function",
      "name": "isApprovedForAll",
      "inputs": [
        {
          "name": "owner",
          "type": "address",
          "internalType": "address"
        },
        {
          "name": "operator",
          "type": "address",
          "internalType": "address"
        }
      ],
      "outputs": [
        {
          "name": "",
          "type": "bool",
          "internalType": "bool"
        }
      ],
      "stateMutability": "view"
    },
    {
      "type": "function",
      "name": "metadata",
      "inputs": [],
      "outputs": [
        {
          "name": "",
          "type": "string",
          "internalType": "string"
        }
      ],
      "stateMutability": "view"
    },
    {
      "type": "function",
      "name": "mint",
      "inputs": [
        {
          "name": "to",
          "type": "address",
          "internalType": "address"
        },
        {
          "name": "vin",
          "type": "string",
          "internalType": "string"
        }
      ],
      "outputs": [],
      "stateMutability": "nonpayable"
    },
    {
      "type": "function",
      "name": "name",
      "inputs": [],
      "outputs": [
        {
          "name": "",
          "type": "string",
          "internalType": "string"
        }
      ],
      "stateMutability": "view"
    },
    {
      "type": "function",
      "name": "onBatteryReceived",
      "inputs": [
        {
          "name": "batteryContract",
          "type": "address",
          "internalType": "address"
        }
      ],
      "outputs": [],
      "stateMutability": "nonpayable"
    },
    {
      "type": "function",
      "name": "onERC721Received",
      "inputs": [
        {
          "name": "",
          "type": "address",
          "internalType": "address"
        },
        {
          "name": "",
          "type": "address",
          "internalType": "address"
        },
        {
          "name": "",
          "type": "uint256",
          "internalType": "uint256"
        },
        {
          "name": "",
          "type": "bytes",
          "internalType": "bytes"
        }
      ],
      "outputs": [
        {
          "name": "",
          "type": "bytes4",
          "internalType": "bytes4"
        }
      ],
      "stateMutability": "nonpayable"
    },
    {
      "type": "function",
      "name": "owner",
      "inputs": [],
      "outputs": [
        {
          "name": "",
          "type": "address",
          "internalType": "address"
        }
      ],
      "stateMutability": "view"
    },
    {
      "type": "function",
      "name": "ownerOf",
      "inputs": [
        {
          "name": "tokenId",
          "type": "uint256",
          "internalType": "uint256"
        }
      ],
      "outputs": [
        {
          "name": "",
          "type": "address",
          "internalType": "address"
        }
      ],
      "stateMutability": "view"
    },
    {
      "type": "function",
      "name": "renounceOwnership",
      "inputs": [],
      "outputs": [],
      "stateMutability": "nonpayable"
    },
    {
      "type": "function",
      "name": "safeTransferFrom",
      "inputs": [
        {
          "name": "from",
          "type": "address",
          "internalType": "address"
        },
        {
          "name": "to",
          "type": "address",
          "internalType": "address"
        },
        {
          "name": "tokenId",
          "type": "uint256",
          "internalType": "uint256"
        }
      ],
      "outputs": [],
      "stateMutability": "nonpayable"
    },
    {
      "type": "function",
      "name": "safeTransferFrom",
      "inputs": [
        {
          "name": "from",
          "type": "address",
          "internalType": "address"
        },
        {
          "name": "to",
          "type": "address",
          "internalType": "address"
        },
        {
          "name": "tokenId",
          "type": "uint256",
          "internalType": "uint256"
        },
        {
          "name": "data",
          "type": "bytes",
          "internalType": "bytes"
        }
      ],
      "outputs": [],
      "stateMutability": "nonpayable"
    },
    {
      "type": "function",
      "name": "setApprovalForAll",
      "inputs": [
        {
          "name": "operator",
          "type": "address",
          "internalType": "address"
        },
        {
          "name": "approved",
          "type": "bool",
          "internalType": "bool"
        }
      ],
      "outputs": [],
      "stateMutability": "nonpayable"
    },
    {
      "type": "function",
      "name": "supportsInterface",
      "inputs": [
        {
          "name": "interfaceId",
          "type": "bytes4",
          "internalType": "bytes4"
        }
      ],
      "outputs": [
        {
          "name": "",
          "type": "bool",
          "internalType": "bool"
        }
      ],
      "stateMutability": "view"
    },
    {
      "type": "function",
      "name": "symbol",
      "inputs": [],
      "outputs": [
        {
          "name": "",
          "type": "string",
          "internalType": "string"
        }
      ],
      "stateMutability": "view"
    },
    {
      "type": "function",
      "name": "tokenURI",
      "inputs": [
        {
          "name": "tokenId",
          "type": "uint256",
          "internalType": "uint256"
        }
      ],
      "outputs": [
        {
          "name": "",
          "type": "string",
          "internalType": "string"
        }
      ],
      "stateMutability": "view"
    },
    {
      "type": "function",
      "name": "transferERC721",
      "inputs": [
        {
          "name": "contractERC721",
          "type": "address",
          "internalType": "address"
        },
        {
          "name": "to",
          "type": "address",
          "internalType": "address"
        }
      ],
      "outputs": [],
      "stateMutability": "nonpayable"
    },
    {
      "type": "function",
      "name": "transferFrom",
      "inputs": [
        {
          "name": "from",
          "type": "address",
          "internalType": "address"
        },
        {
          "name": "to",
          "type": "address",
          "internalType": "address"
        },
        {
          "name": "tokenId",
          "type": "uint256",
          "internalType": "uint256"
        }
      ],
      "outputs": [],
      "stateMutability": "nonpayable"
    },
    {
      "type": "function",
      "name": "transferOwnership",
      "inputs": [
        {
          "name": "newOwner",
          "type": "address",
          "internalType": "address"
        }
      ],
      "outputs": [],
      "stateMutability": "nonpayable"
    },
    {
      "type": "event",
      "name": "Approval",
      "inputs": [
        {
          "name": "owner",
          "type": "address",
          "indexed": true,
          "internalType": "address"
        },
        {
          "name": "approved",
          "type": "address",
          "indexed": true,
          "internalType": "address"
        },
        {
          "name": "tokenId",
          "type": "uint256",
          "indexed": true,
          "internalType": "uint256"
        }
      ],
      "anonymous": false
    },
    {
      "type": "event",
      "name": "ApprovalForAll",
      "inputs": [
        {
          "name": "owner",
          "type": "address",
          "indexed": true,
          "internalType": "address"
        },
        {
          "name": "operator",
          "type": "address",
          "indexed": true,
          "internalType": "address"
        },
        {
          "name": "approved",
          "type": "bool",
          "indexed": false,
          "internalType": "bool"
        }
      ],
      "anonymous": false
    },
    {
      "type": "event",
      "name": "Initialized",
      "inputs": [
        {
          "name": "version",
          "type": "uint64",
          "indexed": false,
          "internalType": "uint64"
        }
      ],
      "anonymous": false
    },
    {
      "type": "event",
      "name": "OwnershipTransferred",
      "inputs": [
        {
          "name": "previousOwner",
          "type": "address",
          "indexed": true,
          "internalType": "address"
        },
        {
          "name": "newOwner",
          "type": "address",
          "indexed": true,
          "internalType": "address"
        }
      ],
      "anonymous": false
    },
    {
      "type": "event",
      "name": "Transfer",
      "inputs": [
        {
          "name": "from",
          "type": "address",
          "indexed": true,
          "internalType": "address"
        },
        {
          "name": "to",
          "type": "address",
          "indexed": true,
          "internalType": "address"
        },
        {
          "name": "tokenId",
          "type": "uint256",
          "indexed": true,
          "internalType": "uint256"
        }
      ],
      "anonymous": false
    },
    {
      "type": "event",
      "name": "VehicleMinted",
      "inputs": [
        {
          "name": "to",
          "type": "address",
          "indexed": true,
          "internalType": "address"
        }
      ],
      "anonymous": false
    },
    {
      "type": "error",
      "name": "AlreadyMinted",
      "inputs": []
    },
    {
      "type": "error",
      "name": "ERC721IncorrectOwner",
      "inputs": [
        {
          "name": "sender",
          "type": "address",
          "internalType": "address"
        },
        {
          "name": "tokenId",
          "type": "uint256",
          "internalType": "uint256"
        },
        {
          "name": "owner",
          "type": "address",
          "internalType": "address"
        }
      ]
    },
    {
      "type": "error",
      "name": "ERC721InsufficientApproval",
      "inputs": [
        {
          "name": "operator",
          "type": "address",
          "internalType": "address"
        },
        {
          "name": "tokenId",
          "type": "uint256",
          "internalType": "uint256"
        }
      ]
    },
    {
      "type": "error",
      "name": "ERC721InvalidApprover",
      "inputs": [
        {
          "name": "approver",
          "type": "address",
          "internalType": "address"
        }
      ]
    },
    {
      "type": "error",
      "name": "ERC721InvalidOperator",
      "inputs": [
        {
          "name": "operator",
          "type": "address",
          "internalType": "address"
        }
      ]
    },
    {
      "type": "error",
      "name": "ERC721InvalidOwner",
      "inputs": [
        {
          "name": "owner",
          "type": "address",
          "internalType": "address"
        }
      ]
    },
    {
      "type": "error",
      "name": "ERC721InvalidReceiver",
      "inputs": [
        {
          "name": "receiver",
          "type": "address",
          "internalType": "address"
        }
      ]
    },
    {
      "type": "error",
      "name": "ERC721InvalidSender",
      "inputs": [
        {
          "name": "sender",
          "type": "address",
          "internalType": "address"
        }
      ]
    },
    {
      "type": "error",
      "name": "ERC721NonexistentToken",
      "inputs": [
        {
          "name": "tokenId",
          "type": "uint256",
          "internalType": "uint256"
        }
      ]
    },
    {
      "type": "error",
      "name": "InvalidAuthorization",
      "inputs": []
    },
    {
      "type": "error",
      "name": "InvalidCallerNotOwner",
      "inputs": []
    },
    {
      "type": "error",
      "name": "InvalidIndex",
      "inputs": []
    },
    {
      "type": "error",
      "name": "InvalidInitialization",
      "inputs": []
    },
    {
      "type": "error",
      "name": "NotInitializing",
      "inputs": []
    },
    {
      "type": "error",
      "name": "OwnableInvalidOwner",
      "inputs": [
        {
          "name": "owner",
          "type": "address",
          "internalType": "address"
        }
      ]
    },
    {
      "type": "error",
      "name": "OwnableUnauthorizedAccount",
      "inputs": [
        {
          "name": "account",
          "type": "address",
          "internalType": "address"
        }
      ]
    },
    {
      "type": "error",
      "name": "TransferFailed",
      "inputs": []
    }
  ],
  "bytecode": {
    "object": "0x6080604052348015600f57600080fd5b506123b58061001f6000396000f3fe608060405234801561001057600080fd5b50600436106101a95760003560e01c80636d1884e0116100f9578063a22cb46511610097578063c87b56dd11610071578063c87b56dd146103c2578063d0def521146103d5578063e985e9c5146103e8578063f2fde38b146103fb57600080fd5b8063a22cb46514610389578063b88d4fde1461039c578063c4dc8d91146103af57600080fd5b806372a423ef116100d357806372a423ef1461032b5780638da5cb5b1461033e57806395893fbd1461036e57806395d89b411461038157600080fd5b80636d1884e0146102f057806370a0823114610310578063715018a61461032357600080fd5b806323930af711610166578063392f37e911610140578063392f37e9146102ad57806342842e0e146102b55780636352211e146102c857806368ea6f04146102db57600080fd5b806323930af71461027557806323b872dd1461028857806330366d5f1461029b57600080fd5b806301ffc9a7146101ae57806306fdde03146101d6578063081812fc146101eb578063095ea7b314610216578063150b7a021461022b5780632016a0d214610262575b600080fd5b6101c16101bc366004611b39565b61040e565b60405190151581526020015b60405180910390f35b6101de610460565b6040516101cd9190611ba6565b6101fe6101f9366004611bb9565b610504565b6040516001600160a01b0390911681526020016101cd565b610229610224366004611be7565b610519565b005b610249610239366004611cb0565b630a85bd0160e11b949350505050565b6040516001600160e01b031990911681526020016101cd565b610229610270366004611d4f565b610528565b610229610283366004611e69565b610632565b610229610296366004611ef0565b610753565b6004545b6040519081526020016101cd565b6101de6107e3565b6102296102c3366004611ef0565b610875565b6101fe6102d6366004611bb9565b610895565b6102e36108a0565b6040516101cd9190611f31565b6103036102fe366004611bb9565b61094c565b6040516101cd9190611fd8565b61029f61031e366004612043565b610c05565b610229610c61565b610229610339366004612043565b610c75565b7f9016d09d72d40fdae2fd8ceac6b6234c7706214fd39c1cd1e609a0528c199300546001600160a01b03166101fe565b61022961037c366004612060565b610d56565b6101de610ed6565b6102296103973660046120a7565b610f15565b6102296103aa366004611cb0565b610f20565b6102296103bd366004612060565b610f38565b6101de6103d0366004611bb9565b611016565b6102296103e33660046120d5565b61108b565b6101c16103f6366004612060565b611112565b610229610409366004612043565b61115f565b60006001600160e01b031982166380ac58cd60e01b148061043f57506001600160e01b03198216635b5e139f60e01b145b8061045a57506301ffc9a760e01b6001600160e01b03198316145b92915050565b600080516020612360833981519152805460609190819061048090612124565b80601f01602080910402602001604051908101604052809291908181526020018280546104ac90612124565b80156104f95780601f106104ce576101008083540402835291602001916104f9565b820191906000526020600020905b8154815290600101906020018083116104dc57829003601f168201915b505050505091505090565b600061050f8261119d565b5061045a826111d5565b61052482823361120f565b5050565b7ff0c57e16840df040f15088dc2f81fe391c3923bec73e23a9662efc9c229c6a00805460019190600160401b900460ff1680610571575080546001600160401b03808416911610155b1561058f5760405163f92ee8a960e01b815260040160405180910390fd5b805468ffffffffffffffffff19166001600160401b03831617600160401b1781556105b98661121c565b6105c3848461122d565b600080546001600160a01b0319166001600160a01b038716179055805468ff0000000000000000191681556040516001600160401b03831681527fc7f505b2f371ae2175ee4913f4499e1f2633a7b5936321eed1cdaeb6115181d29060200160405180910390a1505050505050565b6000546040516301fd3f7760e71b81523360048201526001600160a01b039091169063fe9fbb8090602401602060405180830381865afa15801561067a573d6000803e3d6000fd5b505050506040513d601f19601f8201168201806040525081019061069e9190612158565b15156000036106c057604051632ce87eeb60e01b815260040160405180910390fd5b60408051608081018252848152426020808301919091528183018590526060820184905260045460009081526003909152919091208151819061070390826121bd565b506020828101516001830155604083015180516107269260028501920190611a66565b5060608201518051610742916003840191602090910190611a66565b505060048054600101905550505050565b6001600160a01b03821661078257604051633250574960e11b8152600060048201526024015b60405180910390fd5b600061078f83833361123f565b9050836001600160a01b0316816001600160a01b0316146107dd576040516364283d7b60e01b81526001600160a01b0380861660048301526024820184905282166044820152606401610779565b50505050565b6060600180546107f290612124565b80601f016020809104026020016040519081016040528092919081815260200182805461081e90612124565b801561086b5780601f106108405761010080835404028352916020019161086b565b820191906000526020600020905b81548152906001019060200180831161084e57829003601f168201915b5050505050905090565b61089083838360405180602001604052806000815250610f20565b505050565b600061045a8261119d565b606060006005546001600160401b038111156108be576108be611c13565b6040519080825280602002602001820160405280156108e7578160200160208202803683370190505b50905060005b6005548110156109465760008181526002602052604090205482516001600160a01b03909116908390839081106109265761092661227c565b6001600160a01b03909216602092830291909101909101526001016108ed565b50919050565b6109776040518060800160405280606081526020016000815260200160608152602001606081525090565b6004548210610999576040516363df817160e01b815260040160405180910390fd5b600082815260036020526040908190208151608081019092528054829082906109c190612124565b80601f01602080910402602001604051908101604052809291908181526020018280546109ed90612124565b8015610a3a5780601f10610a0f57610100808354040283529160200191610a3a565b820191906000526020600020905b815481529060010190602001808311610a1d57829003601f168201915b505050505081526020016001820154815260200160028201805480602002602001604051908101604052809291908181526020016000905b82821015610b1e578382906000526020600020018054610a9190612124565b80601f0160208091040260200160405190810160405280929190818152602001828054610abd90612124565b8015610b0a5780601f10610adf57610100808354040283529160200191610b0a565b820191906000526020600020905b815481529060010190602001808311610aed57829003601f168201915b505050505081526020019060010190610a72565b50505050815260200160038201805480602002602001604051908101604052809291908181526020016000905b82821015610bf7578382906000526020600020018054610b6a90612124565b80601f0160208091040260200160405190810160405280929190818152602001828054610b9690612124565b8015610be35780601f10610bb857610100808354040283529160200191610be3565b820191906000526020600020905b815481529060010190602001808311610bc657829003601f168201915b505050505081526020019060010190610b4b565b505050915250909392505050565b60006000805160206123608339815191526001600160a01b038316610c40576040516322718ad960e21b815260006004820152602401610779565b6001600160a01b039092166000908152600390920160205250604090205490565b610c69611349565b610c7360006113a4565b565b6040516331a9108f60e11b81526001600482015230906001600160a01b03831690636352211e90602401602060405180830381865afa158015610cbc573d6000803e3d6000fd5b505050506040513d601f19601f82011682018060405250810190610ce09190612292565b6001600160a01b031614610d07576040516312171d8360e31b815260040160405180910390fd5b60058054829160029160009182610d1d836122af565b91905055815260200190815260200160002060006101000a8154816001600160a01b0302191690836001600160a01b0316021790555050565b33610d616001610895565b6001600160a01b031614158015610de157506000546040516301fd3f7760e71b81523360048201526001600160a01b039091169063fe9fbb8090602401602060405180830381865afa158015610dbb573d6000803e3d6000fd5b505050506040513d601f19601f82011682018060405250810190610ddf9190612158565b155b15610dff57604051632ce87eeb60e01b815260040160405180910390fd5b6040516331a9108f60e11b8152600160048201526001600160a01b03831690636352211e90602401602060405180830381865afa158015610e44573d6000803e3d6000fd5b505050506040513d601f19601f82011682018060405250810190610e689190612292565b50604051632142170760e11b81523060048201526001600160a01b038281166024830152600160448301528316906342842e0e906064015b600060405180830381600087803b158015610eba57600080fd5b505af1158015610ece573d6000803e3d6000fd5b505050505050565b7f80bb2b638cc20bc4d0a60d66940f3ab4a00c1d7b313497ca82fb0b4ab007930180546060916000805160206123608339815191529161048090612124565b610524338383611415565b610f2b848484610753565b6107dd33858585856114c6565b33610f436001610895565b6001600160a01b031614158015610fc357506000546040516301fd3f7760e71b81523360048201526001600160a01b039091169063fe9fbb8090602401602060405180830381865afa158015610f9d573d6000803e3d6000fd5b505050506040513d601f19601f82011682018060405250810190610fc19190612158565b155b15610fe157604051633ee83f6760e11b815260040160405180910390fd5b60405163095ea7b360e01b81526001600160a01b0382811660048301526001602483015283169063095ea7b390604401610ea0565b60606110218261119d565b50600061103960408051602081019091526000815290565b905060008151116110595760405180602001604052806000815250611084565b80611063846115ef565b6040516020016110749291906122d6565b6040516020818303038152906040525b9392505050565b611093611349565b600061109f6001611681565b6001600160a01b0316146110c657604051631bbdf5c560e31b815260040160405180910390fd5b6110d18260016116bb565b6110da81611720565b6040516001600160a01b038316907f7ddb092604f305a557b63b71fbfd4552e6722449567c7d8ca82cfdb35b0a1a3b90600090a25050565b6001600160a01b0391821660009081527f80bb2b638cc20bc4d0a60d66940f3ab4a00c1d7b313497ca82fb0b4ab00793056020908152604080832093909416825291909152205460ff1690565b611167611349565b6001600160a01b03811661119157604051631e4fbdf760e01b815260006004820152602401610779565b61119a816113a4565b50565b6000806111a983611681565b90506001600160a01b03811661045a57604051637e27328960e01b815260048101849052602401610779565b60009081527f80bb2b638cc20bc4d0a60d66940f3ab4a00c1d7b313497ca82fb0b4ab007930460205260409020546001600160a01b031690565b610890838383600161172c565b611224611842565b61119a8161188b565b611235611842565b6105248282611893565b60006000805160206123608339815191528161125a85611681565b90506001600160a01b03841615611276576112768185876118c4565b6001600160a01b038116156112b65761129360008660008061172c565b6001600160a01b0381166000908152600383016020526040902080546000190190555b6001600160a01b038616156112e7576001600160a01b03861660009081526003830160205260409020805460010190555b600085815260028301602052604080822080546001600160a01b0319166001600160a01b038a811691821790925591518893918516917fddf252ad1be2c89b69c2b068fc378daa952ba7f163c4a11628f55a4df523b3ef91a495945050505050565b3361137b7f9016d09d72d40fdae2fd8ceac6b6234c7706214fd39c1cd1e609a0528c199300546001600160a01b031690565b6001600160a01b031614610c735760405163118cdaa760e01b8152336004820152602401610779565b7f9016d09d72d40fdae2fd8ceac6b6234c7706214fd39c1cd1e609a0528c19930080546001600160a01b031981166001600160a01b03848116918217845560405192169182907f8be0079c531659141344cd1fd0a4f28419497f9722a3daafe3b4186f6b6457e090600090a3505050565b6000805160206123608339815191526001600160a01b03831661145657604051630b61174360e31b81526001600160a01b0384166004820152602401610779565b6001600160a01b038481166000818152600584016020908152604080832094881680845294825291829020805460ff191687151590811790915591519182527f17307eab39ab6107e8899845ad3d59bd9653f200f220920489ca2b5937696c31910160405180910390a350505050565b6001600160a01b0383163b156115e857604051630a85bd0160e11b81526001600160a01b0384169063150b7a0290611508908890889087908790600401612305565b6020604051808303816000875af1925050508015611543575060408051601f3d908101601f1916820190925261154091810190612342565b60015b6115ac573d808015611571576040519150601f19603f3d011682016040523d82523d6000602084013e611576565b606091505b5080516000036115a457604051633250574960e11b81526001600160a01b0385166004820152602401610779565b805181602001fd5b6001600160e01b03198116630a85bd0160e11b14610ece57604051633250574960e11b81526001600160a01b0385166004820152602401610779565b5050505050565b606060006115fc83611928565b60010190506000816001600160401b0381111561161b5761161b611c13565b6040519080825280601f01601f191660200182016040528015611645576020820181803683370190505b5090508181016020015b600019016f181899199a1a9b1b9c1cb0b131b232b360811b600a86061a8153600a850494508461164f57509392505050565b60009081527f80bb2b638cc20bc4d0a60d66940f3ab4a00c1d7b313497ca82fb0b4ab007930260205260409020546001600160a01b031690565b6001600160a01b0382166116e557604051633250574960e11b815260006004820152602401610779565b60006116f38383600061123f565b90506001600160a01b03811615610890576040516339e3563760e11b815260006004820152602401610779565b600161052482826121bd565b600080516020612360833981519152818061174f57506001600160a01b03831615155b1561181157600061175f8561119d565b90506001600160a01b0384161580159061178b5750836001600160a01b0316816001600160a01b031614155b801561179e575061179c8185611112565b155b156117c75760405163a9fbf51f60e01b81526001600160a01b0385166004820152602401610779565b821561180f5784866001600160a01b0316826001600160a01b03167f8c5be1e5ebec7d5bd14f71427d1e84f3dd0314c0f7b2291e5b200ac8c7c3b92560405160405180910390a45b505b600093845260040160205250506040902080546001600160a01b0319166001600160a01b0392909216919091179055565b7ff0c57e16840df040f15088dc2f81fe391c3923bec73e23a9662efc9c229c6a0054600160401b900460ff16610c7357604051631afcd79f60e31b815260040160405180910390fd5b611167611842565b61189b611842565b600080516020612360833981519152806118b584826121bd565b50600181016107dd83826121bd565b6118cf838383611a00565b610890576001600160a01b0383166118fd57604051637e27328960e01b815260048101829052602401610779565b60405163177e802f60e01b81526001600160a01b038316600482015260248101829052604401610779565b60008072184f03e93ff9f4daa797ed6e38ed64bf6a1f0160401b83106119675772184f03e93ff9f4daa797ed6e38ed64bf6a1f0160401b830492506040015b6d04ee2d6d415b85acef81000000008310611993576d04ee2d6d415b85acef8100000000830492506020015b662386f26fc1000083106119b157662386f26fc10000830492506010015b6305f5e10083106119c9576305f5e100830492506008015b61271083106119dd57612710830492506004015b606483106119ef576064830492506002015b600a831061045a5760010192915050565b60006001600160a01b03831615801590611a5e5750826001600160a01b0316846001600160a01b03161480611a3a5750611a3a8484611112565b80611a5e5750826001600160a01b0316611a53836111d5565b6001600160a01b0316145b949350505050565b828054828255906000526020600020908101928215611aac579160200282015b82811115611aac5782518290611a9c90826121bd565b5091602001919060010190611a86565b50611ab8929150611abc565b5090565b80821115611ab8576000611ad08282611ad9565b50600101611abc565b508054611ae590612124565b6000825580601f10611af5575050565b601f01602090049060005260206000209081019061119a91905b80821115611ab85760008155600101611b0f565b6001600160e01b03198116811461119a57600080fd5b600060208284031215611b4b57600080fd5b813561108481611b23565b60005b83811015611b71578181015183820152602001611b59565b50506000910152565b60008151808452611b92816020860160208601611b56565b601f01601f19169290920160200192915050565b6020815260006110846020830184611b7a565b600060208284031215611bcb57600080fd5b5035919050565b6001600160a01b038116811461119a57600080fd5b60008060408385031215611bfa57600080fd5b8235611c0581611bd2565b946020939093013593505050565b634e487b7160e01b600052604160045260246000fd5b604051601f8201601f191681016001600160401b0381118282101715611c5157611c51611c13565b604052919050565b60006001600160401b03831115611c7257611c72611c13565b611c85601f8401601f1916602001611c29565b9050828152838383011115611c9957600080fd5b828260208301376000602084830101529392505050565b60008060008060808587031215611cc657600080fd5b8435611cd181611bd2565b93506020850135611ce181611bd2565b92506040850135915060608501356001600160401b03811115611d0357600080fd5b8501601f81018713611d1457600080fd5b611d2387823560208401611c59565b91505092959194509250565b600082601f830112611d4057600080fd5b61108483833560208501611c59565b60008060008060808587031215611d6557600080fd5b8435611d7081611bd2565b93506020850135611d8081611bd2565b925060408501356001600160401b0380821115611d9c57600080fd5b611da888838901611d2f565b93506060870135915080821115611dbe57600080fd5b50611d2387828801611d2f565b600082601f830112611ddc57600080fd5b813560206001600160401b0380831115611df857611df8611c13565b8260051b611e07838201611c29565b9384528581018301938381019088861115611e2157600080fd5b84880192505b85831015611e5d57823584811115611e3f5760008081fd5b611e4d8a87838c0101611d2f565b8352509184019190840190611e27565b98975050505050505050565b600080600060608486031215611e7e57600080fd5b83356001600160401b0380821115611e9557600080fd5b611ea187838801611d2f565b94506020860135915080821115611eb757600080fd5b611ec387838801611dcb565b93506040860135915080821115611ed957600080fd5b50611ee686828701611dcb565b9150509250925092565b600080600060608486031215611f0557600080fd5b8335611f1081611bd2565b92506020840135611f2081611bd2565b929592945050506040919091013590565b6020808252825182820181905260009190848201906040850190845b81811015611f725783516001600160a01b031683529284019291840191600101611f4d565b50909695505050505050565b60008282518085526020808601955060208260051b8401016020860160005b84811015611fcb57601f19868403018952611fb9838351611b7a565b98840198925090830190600101611f9d565b5090979650505050505050565b602081526000825160806020840152611ff460a0840182611b7a565b9050602084015160408401526040840151601f198085840301606086015261201c8383611f7e565b925060608601519150808584030160808601525061203a8282611f7e565b95945050505050565b60006020828403121561205557600080fd5b813561108481611bd2565b6000806040838503121561207357600080fd5b823561207e81611bd2565b9150602083013561208e81611bd2565b809150509250929050565b801515811461119a57600080fd5b600080604083850312156120ba57600080fd5b82356120c581611bd2565b9150602083013561208e81612099565b600080604083850312156120e857600080fd5b82356120f381611bd2565b915060208301356001600160401b0381111561210e57600080fd5b61211a85828601611d2f565b9150509250929050565b600181811c9082168061213857607f821691505b60208210810361094657634e487b7160e01b600052602260045260246000fd5b60006020828403121561216a57600080fd5b815161108481612099565b601f821115610890576000816000526020600020601f850160051c8101602086101561219e5750805b601f850160051c820191505b81811015610ece578281556001016121aa565b81516001600160401b038111156121d6576121d6611c13565b6121ea816121e48454612124565b84612175565b602080601f83116001811461221f57600084156122075750858301515b600019600386901b1c1916600185901b178555610ece565b600085815260208120601f198616915b8281101561224e5788860151825594840194600190910190840161222f565b508582101561226c5787850151600019600388901b60f8161c191681555b5050505050600190811b01905550565b634e487b7160e01b600052603260045260246000fd5b6000602082840312156122a457600080fd5b815161108481611bd2565b6000600182016122cf57634e487b7160e01b600052601160045260246000fd5b5060010190565b600083516122e8818460208801611b56565b8351908301906122fc818360208801611b56565b01949350505050565b6001600160a01b038581168252841660208201526040810183905260806060820181905260009061233890830184611b7a565b9695505050505050565b60006020828403121561235457600080fd5b815161108481611b2356fe80bb2b638cc20bc4d0a60d66940f3ab4a00c1d7b313497ca82fb0b4ab0079300a26469706673582212201470ad14b92da95183d31e304fff57b340af57105a11811cdcc99f027496b30064736f6c63430008190033",
    "linkReferences": {}
  },
  "methodIdentifiers": {
    "addEvent(string,string[],string[])": "23930af7",
    "approve(address,uint256)": "095ea7b3",
    "approveERC721(address,address)": "c4dc8d91",
    "balanceOf(address)": "70a08231",
    "getApproved(uint256)": "081812fc",
    "getBatteriesHistory()": "68ea6f04",
    "getEvent(uint256)": "6d1884e0",
    "getEventsCount()": "30366d5f",
    "initialize(address,address,string,string)": "2016a0d2",
    "isApprovedForAll(address,address)": "e985e9c5",
    "metadata()": "392f37e9",
    "mint(address,string)": "d0def521",
    "name()": "06fdde03",
    "onBatteryReceived(address)": "72a423ef",
    "onERC721Received(address,address,uint256,bytes)": "150b7a02",
    "owner()": "8da5cb5b",
    "ownerOf(uint256)": "6352211e",
    "renounceOwnership()": "715018a6",
    "safeTransferFrom(address,address,uint256)": "42842e0e",
    "safeTransferFrom(address,address,uint256,bytes)": "b88d4fde",
    "setApprovalForAll(address,bool)": "a22cb465",
    "supportsInterface(bytes4)": "01ffc9a7",
    "symbol()": "95d89b41",
    "tokenURI(uint256)": "c87b56dd",
    "transferERC721(address,address)": "95893fbd",
    "transferFrom(address,address,uint256)": "23b872dd",
    "transferOwnership(address)": "f2fde38b"
  },
  "id": 60
}